:100000000C94B6000C9476280C94A3280C94DE0073
:100010000C94DE000C94DE000C94DE000C94DE00E8
:100020000C94DE000C94DE000C94DE000C94DE00D8
:100030000C94DE000C94DE000C94DE000C94DE00C8
:100040000C94D0280C94DE000C94DE2A0C942C2BFB
:100050000C94DE000C94DE000C94DE000C94DE00A8
:100060000C94ED1A0C94DE0007634236B79BD8A7B8
:100070001A39685618AEBAAB558C1D3CB7CC5763CD
:10008000BD6DEDFD753EF6177231BF000000803F7B
:1000900008000000BE922449123EABAAAA2ABECD97
:1000A000CCCC4C3E00000080BEABAAAAAA3E000009
:1000B0000000BF000000803F000000000008417801
:1000C000D3BB4387D1133D190E3CC3BD4282AD2B38
:1000D0003E68EC8276BED98FE1A93E4C80EFFFBE30
:1000E00001C4FF7F3F000000000074727565006668
:1000F000616C7365006E756C6C0025750025752E3E
:10010000002D0025640000000000240027002A00C4
:1001100000000000250028002B0000000000230044
:100120002600290004040404040404040202020258
:1001300002020303030303030102040810204080AA
:10014000010204081020010204081020000000072A
:10015000000201000003040600000000000000008F
:100160008107DA081B155A1AFE1C982C11241FBE91
:10017000CFEFD8E0DEBFCDBF11E0A0E0B1E0E8E80E
:10018000F3E602C005900D92AE3CB107D9F716E038
:10019000AEECB1E001C01D92AF37B107E1F711E05D
:1001A000CCE6D1E004C02297FE010E947C31C0362B
:1001B000D107C9F70E94EE2C0C94C2310C940000B8
:1001C000EF92FF920F93DF93CF93CDB7DEB7609797
:1001D0000FB6F894DEBF0FBECDBFA82F002309F4E1
:1001E00061C07E010894E11CF11C88E0F7011192C6
:1001F0008A95E9F729833A834B835C836D837E83F9
:10020000AF83988780E2801BE82FFF27E7FDF095FA
:100210004D815E816F817885181684F01D861E865B
:100220001F86188A882799278E1B9F0B04C07695F6
:100230006795579547958A95D2F728C0202F332781
:1002400027FD3095DB01CA01022E04C0B695A795A3
:10025000979587950A94D2F78D879E87AF87B88B3D
:1002600004C0440F551F661F771FEA95D2F7898196
:100270009A81AB81BC8104C0B695A7959795879567
:100280002A95D2F7482B592B6A2B7B2B49875A8703
:100290006B877C8729853A854B855C856D857E8556
:1002A000AF8598898A2F60960FB6F894DEBF0FBE8F
:1002B000CDBFCF91DF910F91FF90EF900895EF9216
:1002C000FF920F93DF93CF93CDB7DEB760970FB652
:1002D000F894DEBF0FBECDBFA82F002309F461C084
:1002E0007E010894E11CF11C88E0F70111928A95C7
:1002F000E9F729833A834B835C836D837E83AF83E5
:10030000988780E2801BE82FFF27E7FDF095498161
:100310005A816B817C81181684F019861A861B8697
:100320001C86882799278E1B9F0B04C0440F551FDE
:10033000661F771F8A95D2F728C0202F332727FD05
:100340003095DB01CA01022E04C0880F991FAA1F35
:10035000BB1F0A94D2F789879A87AB87BC8704C0F2
:100360007695679557954795EA95D2F78D819E8149
:10037000AF81B88504C0880F991FAA1FBB1F2A959B
:10038000D2F7482B592B6A2B7B2B4D875E876F87C3
:10039000788B29853A854B855C856D857E85AF8513
:1003A00098898A2F60960FB6F894DEBF0FBECDBF36
:1003B000CF91DF910F91FF90EF9008952F923F9290
:1003C0005F926F927F928F929F92AF92BF92CF92E5
:1003D000DF92EF92FF920F931F93CF93DF938C01E5
:1003E0001B01EA016115710519F0FB0191838083FE
:1003F000209749F0CE010297839728F020E030E063
:1004000040E050E0F6C0F801A1908F018A2D90E005
:100410000E948031892BB9F7FDE2AF1631F4F80163
:10042000A1908F015524539407C0FBE2AF1619F435
:10043000F801A1908F015524209719F0C031D10502
:10044000C1F4F0E3AF1679F4F8018081883711F038
:10045000883549F4F801A1800E5F1F4FF2E05F2A52
:10046000C0E1D0E006C0209721F480E3A816E9F4AB
:1004700027C0C830D10531F1C930D10524F4C230CC
:10048000D10531F50CC0CA30D10589F0C031D10594
:10049000F9F4C12CD12CE12CB8E0FB2E28C0C12CE2
:1004A000D12CE12CA0E4FA2E22C0CAE0D0E0FCEC72
:1004B000CF2EFCECDF2EFCECEF2EFCE0FF2E17C065
:1004C000C8E0D0E0C12CD12CE12CE0E1FE2E0FC021
:1004D0009E01442737FD4095542F60E070E080E096
:1004E00090E80E943D31C901DA016C017D0120E0F4
:1004F00030E040E050E060E03E01882477FC8094EA
:10050000982C70EDB72EBA0CE9E0EB1570F48A2D3B
:1005100081548A3118F499ECB92E06C08A2D81567F
:100520008A3150F589EAB82EBA0C8B2D90E08C17E1
:100530009D0714F56F3FE1F0C216D306E406F506F9
:10054000B0F0CA01B901A40193010E94F7309B01E8
:10055000AC012B0D311D411D511D2130F0E03F0735
:10056000F0E04F07F0E85F0710F461E001C06FEFC3
:10057000F801A1908F01C5CF2114310481F06623C9
:1005800031F001501040F1011183008308C051FE89
:100590001AC002501040F1011183008314C067FF9C
:1005A00012C050FC05C02FEF3FEF4FEF5FE704C0D4
:1005B00020E030E040E050E882E290E090937E0658
:1005C00080937D0616C050FE08C05095409530952A
:1005D00021953F4F4F4F5F4F0CC057FF0AC082E23B
:1005E00090E090937E0680937D062FEF3FEF4FEFD4
:1005F0005FE7B901CA01DF91CF911F910F91FF9081
:10060000EF90DF90CF90BF90AF909F908F907F90B2
:100610006F905F903F902F900895FC018827992755
:10062000E89421912032E9F3293010F02E30C8F3FC
:100630002B3241F02D3239F4689404C00E949403A7
:10064000820F911D219120532A30C0F31EF4909502
:1006500081959F4F08950F931F93CF93DF93182F8A
:10066000092FE82FF92FDF010D900020E9F7CD01C8
:100670008E1B9F0B0E940B27EC01009721F0612F2E
:10068000702F0E947003CE01DF91CF911F910F91C7
:100690000895FB01DC018D9181341CF08B350CF445
:1006A000805E619161341CF06B350CF4605E861BDA
:1006B000611189F3990B0895FB01DC010D90002075
:1006C000E9F7119701900D920020E1F70895FB01E1
:1006D000DC018D91019080190110D9F3990B0895D7
:1006E000FB01DC0101900D920020E1F70895FB0170
:1006F000DC014150504030F08D910190801919F487
:100700000020B9F7881B990B0895FB01DC014150CB
:10071000504048F001900D920020C9F701C01D9291
:1007200041505040E0F708957AE0979F902D879FC1
:10073000802D910D11240895FC01838187FF24C031
:1007400080917706909178068E179F0721F410927A
:100750007806109277068091790690917A068E1726
:100760009F0721F410927A061092790680917B06F9
:1007700090917C068E179F0721F410927C061092B0
:100780007B06CF010E94A82780E090E008950F9398
:100790001F93CF93DF938C01EB01009731F4611528
:1007A000710519F420E030E038C081E090E06EE09F
:1007B00070E00E94EA06FC019C01009771F180E85C
:1007C0008383209771F0D387C28781E883838091E8
:1007D000770690917806892B21F4F0937806E093C0
:1007E000770601151105C9F01187008783818260A2
:1007F00083838091790690917A06892B71F4F09326
:100800007A06E093790680917B0690917C06892B8D
:1008100021F4F0937C06E0937B06C901DF91CF9130
:100820001F910F910895CF93DF93EC014B8140FF0F
:100830001AC046FF0AC04F7B4B838E819F81019671
:100840009F838E838A81282F2BC042FF13C0E881AB
:10085000F9818081282F332727FD30952115310517
:1008600029F440624B832FEF3FEF1BC03196F98391
:10087000E88311C0EA85FB85CE0109959C0197FFAD
:100880000AC09B812F5F3F4F11F080E201C080E1E1
:10089000892B8B83E8CF8E819F8101969F838E83E6
:1008A00030E0C901DF91CF910895A0E0B0E0EBE521
:1008B000F4E00C9499310F8118859E01255F3F4F1C
:1008C000F801838188608383C80169857A85A901DD
:1008D0000E940D05F8012381277F23832096E4E001
:1008E0000C94B5310F931F93CF93DF938C01EB01E1
:1008F0008B8181FF1BC082FF0DC02E813F818C81C7
:100900009D812817390764F4E881F9810193F983FF
:10091000E88306C0E885F985802F0995892B31F495
:100920008E819F8101969F838E8302C00FEF1FEF00
:10093000C801DF91CF911F910F910895A0E0B0E021
:10094000E4EAF4E00C949131FC014B015A01690195
:10095000D90113968C9180FF1AC07F01C0E0D0E0CE
:1009600010C0C6010E941304BFEF8F3F9B0789F0A0
:10097000F70181937F010F5F1F4F0815190588F359
:100980002196CA15DB0528F400E010E0F6CFC0E0A0
:10099000D0E0CE01CDB7DEB7ECE00C94AD31AEE0E7
:1009A000B0E0E5EDF4E00C9499310D891E8986E004
:1009B0008C831A8309838FEF9FE79E838D839E012B
:1009C000275E3F4FCE0101966F89788DA9010E9465
:1009D0000D052F813885020F131FF80110822E9606
:1009E000E4E00C94B5319C01FB01838180FF11C0D0
:1009F00086FD0FC09FEF2F3F390759F02283806497
:100A00008F7D83838681978101979783868330E0EA
:100A100002C02FEF3FEFC9010895ABE0B0E0E3E182
:100A2000F5E00C948B313C012B015A01FC0117823B
:100A30001682838181FD03C06FEF7FEFC6C19AE00C
:100A4000892E1E010894211C311CF3012381F2011F
:100A500023FD859123FF81912F01882309F4B2C1E1
:100A6000853239F423FD859123FF81912F01853251
:100A700029F490E0B3010E947204E7CF982FFF247D
:100A8000EE249924FFE1FF15D0F09B3269F09C32EF
:100A900028F4903259F0933291F40EC09D3249F00F
:100AA000903369F441E024C052E0F52A84E0F82A4A
:100AB00028C098E0F92A25C0E0E1FE2A22C0F7FC10
:100AC00029C0892F80538A3070F4F6FE05C0989CA7
:100AD000902C1124980E15C0E89CE02C1124E80EEF
:100AE000F0E2FF2A0EC09E3229F4F6FC6BC140E40E
:100AF000F42A07C09C3619F450E8F52A02C098364B
:100B000049F4F20123FD959123FF91912F0199233F
:100B100009F0B8CF892F8554833018F08052833084
:100B200038F444E050E0A40EB51E5FE359830FC0D3
:100B3000933631F0933779F0933509F056C020C0E1
:100B4000F5018081898342E050E0A40EB51E610169
:100B500001E010E012C0F501C080D180F6FC03C0B6
:100B60006FEF7FEF02C0692D70E042E050E0A40E0D
:100B7000B51EC6010E9418078C015FE7F52214C05C
:100B8000F501C080D180F6FC03C06FEF7FEF02C09B
:100B9000692D70E042E050E0A40EB51EC6010E942F
:100BA00006078C0150E8F52AF3FE07C01AC080E260
:100BB00090E0B3010E947204EA948E2D90E0081731
:100BC0001907A8F30EC0F601F7FC8591F7FE819195
:100BD0006F0190E0B3010E947204E110EA940150A9
:100BE00010400115110579F7EAC0943611F09936D5
:100BF00069F5F7FE08C0F5012081318142815381FA
:100C000084E090E00AC0F501808191819C01442735
:100C100037FD4095542F82E090E0A80EB91E9FE664
:100C2000F92257FF09C050954095309521953F4FC7
:100C30004F4F5F4FE0E8FE2ACA01B901A1012AE047
:100C400030E00E942307D82ED21840C0953729F4EF
:100C50001F2D1F7E2AE030E01DC01F2D197F9F36FB
:100C600061F0903720F4983509F0ACC00FC0903790
:100C700039F0983709F0A6C004C028E030E00AC077
:100C8000106114FD146020E130E004C014FD166012
:100C900020E132E017FF08C0F50160817181828197
:100CA000938144E050E008C0F50180819181BC014E
:100CB00080E090E042E050E0A40EB51EA1010E9449
:100CC0002307D82ED2188FE7F82EF122F6FE0BC09C
:100CD0005EEFF522D91438F4F4FE07C0F2FC05C02B
:100CE0008FEEF82202C01D2D01C0192DF4FE0DC09B
:100CF000FE01ED0DF11D8081803319F499EEF9228A
:100D000008C01F5FF2FE05C003C08F2D867809F072
:100D10001F5F0F2DF3FC14C0F0FE0FC01E1510F066
:100D20009D2C0BC09D2C9E0C911A1E2D06C080E29E
:100D300090E0B3010E9472041F5F1E15C0F304C04F
:100D40001E1510F4E11A01C0EE2404FF0FC080E369
:100D500090E0B3010E94720402FF1DC001FD03C0B8
:100D600088E790E00EC088E590E00BC0802F867881
:100D700091F001FF02C08BE201C080E2F7FC8DE23E
:100D800090E0B3010E94720406C080E390E0B301DA
:100D90000E9472049A94D914C0F3DA94F101ED0D13
:100DA000F11D808190E0B3010E947204DD20A9F75B
:100DB00006C080E290E0B3010E947204EA94EE2043
:100DC000C1F743CEF30166817781CB012B96E2E137
:100DD0000C94A7310F931F93CF93DF93689F8001EB
:100DE000699F100D789F100D1124C8010E940B27D8
:100DF000EC01009729F060E070E0A8010E94110763
:100E0000CE01DF91CF911F910F910895FC010590C4
:100E1000615070400110D8F7809590958E0F9F1FFC
:100E20000895DC0101C06D9341505040E0F70895F2
:100E3000FC016150704001900110D8F780959095A9
:100E40008E0F9F1F0895FA01AA27283051F12031F3
:100E500081F1E8946F936E7F6E5F7F4F8F4F9F4F4E
:100E6000AF4FB1E03ED0B4E03CD0670F781F891F90
:100E70009A1FA11D680F791F8A1F911DA11D6A0F5E
:100E8000711D811D911DA11D20D009F468943F9111
:100E90002AE0269F11243019305D3193DEF6CF0110
:100EA0000895462F4770405D4193B3E00FD0C9F7D6
:100EB000F6CF462F4F70405D4A3318F0495D31FD43
:100EC0004052419302D0A9F7EACFB4E0A695979596
:100ED000879577956795BA95C9F70097610571056C
:100EE00008959B01AC010A2E0694579547953795B6
:100EF0002795BA95C9F7620F731F841F951FA01D10
:100F000008958091EB019091EC01A091ED01B091D9
:100F1000EE0180939B0190939C01A0939D01B0935F
:100F20009E0108950F931F930FEB13E0C8010E94D9
:100F3000DC26C8010E94E2231F910F9108958AE0E8
:100F400061E00E944A2A8BE061E00E944A2A89E01F
:100F500061E00E944A2A8AE061E00E94892A8BE0CF
:100F600061E00E94892A89E061E00E94892A8CE080
:100F700061E00E944A2A88E061E00E944A2A87E0F4
:100F800061E00E944A2A8CE061E00E94892A88E0A0
:100F900061E00E94892A87E060E00E94892A089522
:100FA00089E060E00E94892A8AE060E00E94892A44
:100FB000089588E061E00E944A2A8BE061E00E9487
:100FC0004A2A8CE061E00E944A2A8DE061E00E949A
:100FD0004A2A89E061E00E944A2A8AE061E00E9490
:100FE0004A2A0E94D00789E18093E4011092E5012A
:100FF0000895CF92DF92EF92FF920F931F93CF93BA
:10100000DF938C012091E401332727FD30952E5C7E
:101010003F4F442737FD4095542F6CE271E080E04C
:1010200090E00E945F311016110634F481E0809345
:10103000E501C0E0D0E007C001151105B9F110923B
:10104000E501C8ECD0E0C80117FF03C09095819579
:101050009F4F8C01000F111F000F111F6901EE241B
:10106000D7FCE094FE2C1FC0CE0164E070E00E942B
:101070002A31FC01E655FE4F808185B9C701B601D2
:101080000E944C298091E501813039F42196C83CB9
:10109000D10539F4C0E0D0E004C0219711F4C8ECC8
:1010A000D0E00150104001151105F1F6DF91CF910C
:1010B0001F910F91FF90EF90DF90CF900895EF92E6
:1010C000FF920F931F937C0101E515E0C80160E0DA
:1010D00071E00E94632DF70166817781C8010E944B
:1010E000662DF70162857385848595850E944A2E59
:1010F000DC01CB010E94F9071F910F91FF90EF9047
:1011000008950E94D907EEECF1E01192119281E06E
:10111000E43EF807D1F781E991E09093CF01809305
:10112000CE010E945F0808950F931F9301E515E01B
:10113000C80140E855E260E070E00E94672BC801FA
:1011400063E171E00E94662D0E949F070E94810862
:101150008FEB93E06EEC71E00E947E1C88EC90E0D7
:101160000E94F9071F910F910895449A459AE9EB5F
:10117000F0E080818E7F808380818D7F808388E412
:101180008093B80084E48093BC000895FC018091B2
:10119000EF019091F101981B9093F001882319F4CD
:1011A0001092F001089581508093EF01E90FF11D35
:1011B000828108950895EF92FF920F931F930E94EA
:1011C00018297B018C0184E98093BC001BC0211588
:1011D0003105E1F00E9418296E197F09800B910BEF
:1011E0002091F2013091F30140E050E06217730763
:1011F0008407950738F01092BC0084E48093BC000B
:1012000081E009C02091F2013091F3018091BC008E
:1012100084FDDDCF80E01F910F91FF90EF90089546
:10122000CF92DF92EF92FF921F93162F0E94182900
:101230006B017C01112311F084EC01C084E88093E0
:10124000BC001BC021153105E1F00E9418296C1962
:101250007D098E099F092091F2013091F30140E050
:1012600050E0621773078407950738F01092BC00AE
:1012700084E48093BC0091E019C02091F201309188
:10128000F3018091BC0087FFDDCF8091B900887F9A
:10129000883349F49091B900987F1092BC0084E49F
:1012A0008093BC0003C09091B900987F892F1F9153
:1012B000FF90EF90DF90CF900895EF92FF920F9301
:1012C0001F93CF93DF93EC016093BB000E9418291A
:1012D0007B018C0184E88093BC001BC02115310583
:1012E000E1F00E9418296E197F09800B910B209163
:1012F000F2013091F30140E050E062177307840778
:10130000950738F01092BC0084E48093BC0011E093
:1013100020C02091F2013091F3018091BC0087FF41
:10132000DDCF8091B900887F883211F410E011C0C0
:101330001091B900187F8091B900887F803321F423
:10134000CE010E94DB0805C01092BC0084E48093AB
:10135000BC00812FDF91CF911F910F91FF90EF90F3
:101360000895EF92FF920F931F93CF93DF93EC01B9
:101370006093BB000E9418297B018C0184E8809354
:10138000BC001BC021153105E1F00E9418296E191F
:101390007F09800B910B2091F2013091F30140E025
:1013A00050E0621773078407950738F01092BC006D
:1013B00084E48093BC0011E01DC02091F2013091C3
:1013C000F3018091BC0087FFDDCF8091B900887F59
:1013D000883179F08091B900887F803499F409C010
:1013E0008091B900887F8834B1F4CE010E94DB0877
:1013F00001C010E0812FDF91CF911F910F91FF90DD
:10140000EF9008951091B900187F8091B900887FFE
:10141000803231F7EACF1092BC0084E48093BC00A4
:10142000E9CFEF92FF920F931F930E9418297B013F
:101430008C0184EA8093BC001BC021153105E1F0CA
:101440000E9418296E197F09800B910B2091F201DF
:101450003091F30140E050E062177307840795076D
:1014600038F01092BC0084E48093BC0091E021C06D
:101470002091F2013091F3018091BC0087FFDDCF14
:101480008091B900887F883099F08091B900887F79
:101490008031A9F40DC09091B900987F1092BC00E2
:1014A00084E48093BC0005C09091B900987F01C08E
:1014B00090E0892F1F910F91FF90EF9008958091F8
:1014C000B900887F883381F7E6CFEF92FF920F93C0
:1014D0001F93CF93DF93EC01162F042FE22E10926F
:1014E000EF011092F001222311F4EE24E394EA9428
:1014F000E982E3941882CE010E94110A888388232E
:1015000009F061C0110FCE01612F0E94B1098883DB
:10151000882329F0813009F056C082E054C0CE0102
:10152000602F0E945D098883882329F0813009F0AB
:101530004AC083E048C0CE010E94110A88838823F4
:1015400029F0813009F03FC084E03DC01F5FCE012B
:10155000612F0E94B1098883882319F48E01FF242A
:1015600025C0813081F585E02EC08981F81651F4BF
:10157000CE0160E00E9410098883813019F188351E
:1015800051F021C0CE0161E00E94100988838130B2
:10159000C9F08035C1F48091BB00F8018283F394D7
:1015A000F092EF01F092F1010F5F1F4FFE14E8F28D
:1015B000CE010E94DB088883882329F0813019F44A
:1015C00087E001C086E0DF91CF911F910F91FF90DE
:1015D000EF900895FF920F931F93CF93DF93EC0149
:1015E000162F042FF22E18820E94110A8883882356
:1015F00041F5110FCE01612F0E94B1098883882324
:1016000021F08130F1F482E01CC0CE01602F0E94F5
:101610005D098883882339F4CE016F2D0E945D090E
:101620008883882319F0813061F40AC0CE010E94BA
:10163000DB088883882329F0813019F487E001C012
:1016400083E0DF91CF911F910F91FF9008950F9349
:101650001F93CF93DF93EC01162F042F18820E9463
:10166000110A8883882301F5110FCE01612F0E9492
:10167000B1098883882321F08130B1F482E014C05D
:10168000CE01602F0E945D098883882321F081307C
:1016900059F483E009C0CE010E94DB0888838823C7
:1016A00019F0813009F487E0DF91CF911F910F91FC
:1016B0000895FB010680F781E02D80E004C08F5F74
:1016C0000280F381E02D3097D1F70895FB01068069
:1016D000F781E02D04C041500280F381E02D309766
:1016E00011F04423C1F7CF010895CF93DF93EB01AD
:1016F000DA01EE81FF814115510591F0309719F41F
:101700005F834E830DC0CF010280F381E02D3097BF
:10171000D1F7FC01B383A28315969C938E93149703
:10172000DF91CF9108950F931F93CF93DF93FB0128
:101730008A01C681D78103C00A80DB81C02D209732
:1017400039F088819981B8010E944903892BA1F75A
:10175000CE01DF91CF911F910F910895EF92FF92EB
:101760000F931F93CF93DF937B018A01E90121152A
:10177000310511F188819981009711F00E94A82705
:10178000C8010E942B0388839983D7011696ED9197
:10179000FC911797309729F41796DC93CE93169700
:1017A0000BC0CF010280F381E02D3097D1F7FC010F
:1017B000D383C2839D838C83DF91CF911F910F913F
:1017C000FF90EF900895EF92FF920F931F93CF93A6
:1017D000DF938C01EB0123C0FA80EB80888587FDC5
:1017E00008C06E817F816115710519F0C8010E94E2
:1017F000E30B8885853031F489859A85009711F04F
:101800000E94A82788819981009711F00E94A8273B
:10181000CE010E94A8278F2D9E2D9C01E9012097C3
:10182000D9F6DF91CF911F910F91FF90EF9008951E
:101830000F931F93CF93DF938B01EA0182E290E035
:10184000BA010E9472048F5F9F4F09F464C00115B2
:10185000110509F050C054C0803240F0823231F09E
:101860008C3521F0992787FD909534C08CE590E068
:10187000BE010E9472048F5F9F4F09F44CC0F801B3
:1018800080818C30C9F08D303CF4893051F18A3040
:10189000B1F0883071F50DC0823241F08C3519F00D
:1018A0008D3039F515C08CE590E01DC082E290E0E6
:1018B00008C082E690E00EC086E690E014C08EE696
:1018C00090E0BE010E9472048F5F9F4F91F423C08D
:1018D00082E790E0BE010E9472048F5F9F4F49F43F
:1018E0001AC084E790E0BE010E9472048F5F9F4F90
:1018F00091F00F5F1F4FF8018081882309F0ACCF72
:1019000082E290E0BE010E9472048F5F9F4F19F047
:1019100020E030E002C02FEF3FEFC901DF91CF910F
:101920001F910F910895CF93DF93EB01611571051E
:1019300059F0CE010E9413042FEF8F3F920721F040
:1019400081329105B4F306C02FEF3FEFC901DF915B
:10195000CF910895BE010E94F3048F5F9F4FA1F3C2
:1019600020E030E0F3CF6F927F928F929F92AF9200
:10197000BF92CF92DF92EF92FF920F931F93CF937C
:10198000DF93FB014A016115710509F4A5C0A1842B
:10199000B284C384D484C601B50120E030E040E0C5
:1019A00050E00E94DE2D8823C4F400D000D0ADB7F3
:1019B000BEB712969C928E92119781E091E0149698
:1019C0009C938E9313970E945504D7FAD094D7F81E
:1019D000D0940F900F900F900F90C601B5010E9408
:1019E0004F2E7B018C01EDB7FEB738970FB6F894F8
:1019F000FEBF0FBEEDBF3196ADB7BEB712969C923B
:101A00008E9211978DEF90E093838283E482F5822A
:101A1000068317830E945504C801B7010E947B2EDC
:101A20009B01AC01C601B5010E94792D2CEA35EC71
:101A300047EA56E30E947A2D7B018C01C5E0D0E095
:101A4000EDB7FEB738960FB6F894FEBF0FBEEDBFE8
:101A50008AEF682E80E0782EC801B70120E030E0E0
:101A600040E251E40E942D2F5B016C010E944F2E39
:101A70007B0100D000D000D0EDB7FEB73196ADB7F6
:101A8000BEB712969C928E92119773826282758372
:101A900064830E94550400E010E0C801B7010E9471
:101AA0007B2E9B01AC01C601B5010E94792D7B0103
:101AB0008C01EDB7FEB736960FB6F894FEBF0FBE99
:101AC000EDBF20E030E040E050E00E94DE2D8823B2
:101AD00019F0219709F0C0CF80E090E0DF91CF911D
:101AE0001F910F91FF90EF90DF90CF90BF90AF903C
:101AF0009F908F907F906F900895CF93DF93DB013D
:101B00006115710519F420E030E01FC000D000D04D
:101B100000D0EDB7FEB73196CDB7DEB75A83498313
:101B200083E091E09383828319968D919C911A971B
:101B3000958384830E9455049C018DB79EB70696B9
:101B40000FB6F8949EBF0FBE8DBFC901DF91CF9134
:101B50000895FB016115710509F44BC02085233000
:101B6000B1F124303CF4213049F1223064F42223D5
:101B700099F03FC0253089F1253064F1263091F18C
:101B80002730B9F532C000D000D0EDB7FEB7528390
:101B9000418385EF90E008C000D000D0EDB7FEB7DC
:101BA000528341838FEE90E0948383830E94550497
:101BB0009C010F900F900F900F901DC000D000D08F
:101BC000EDB7FEB7528341838AEE90E0EDCF0E94DD
:101BD0007D0D0DC00E94B30C0AC0618572850E9404
:101BE000180C05C00E944B0E02C00E94FD0D9C0106
:101BF00002C020E030E0C9010895EF92FF920F93F8
:101C00001F93CF93DF937C01FB018A01611571055E
:101C1000C1F1C681D7818BE790E020C068817981CE
:101C2000C701A8010E94180C8F5F9F4F39F18AE30A
:101C300090E0B8010E9472048F5F9F4FF9F0C701D6
:101C4000BE01A8010E94A90D8F5F9F4FB9F00A80C5
:101C5000DB81C02D209741F08CE290E0B8010E941A
:101C600072048F5F9F4F51F02097C1F68DE790E08F
:101C7000B8010E9472048F5F9F4F19F42FEF3FEF5E
:101C800002C020E030E0C901DF91CF911F910F9198
:101C9000FF90EF900895EF92FF920F931F93CF93D1
:101CA000DF937C01FB018A016115710539F1C68161
:101CB000D7818BE590E00FC0C701BE01A8010E944B
:101CC000A90D8F5F9F4FB9F00A80DB81C02D20974F
:101CD00041F08CE290E0B8010E9472048F5F9F4F48
:101CE00051F0209749F78DE590E0B8010E94720409
:101CF0008F5F9F4F19F42FEF3FEF02C020E030E0DD
:101D0000C901DF91CF911F910F91FF90EF9008953E
:101D1000EF92FF920F931F93CF93DF938C017B0180
:101D20000E948F13EC01009719F420E030E009C005
:101D3000C801B701AE010E94A90DCE010E9478131F
:101D40009C01C901DF91CF911F910F91FF90EF90FE
:101D50000895EF92FF920F931F93CF93DF937B0130
:101D60008A01CA010E941304829709F04FC085E0DE
:101D7000F70180870E944A14EC01009709F446C0DD
:101D8000C8010E941304FFEF8F3F9F0709F041C075
:101D90003AC08C35910569F5C8010E9413042FEFF4
:101DA0008F3F920781F186369105E1F087369105E4
:101DB0004CF48C35910581F08236910589F082973B
:101DC000D9F40CC08237910589F08437910581F0F0
:101DD0008E36910589F408C08CE50BC082E209C0FB
:101DE00088E007C08CE005C08AE003C08DE001C038
:101DF00089E0BE010E94E413C8010E941304EFEFC2
:101E00008F3F9E0731F4CE010E9402142FEF3FEF67
:101E10000FC08232910521F0803291050CF0B9CFCC
:101E2000CE010E940714F7019287818720E030E0FD
:101E3000C901DF91CF911F910F91FF90EF9008950D
:101E40002F923F924F925F926F92AF92BF92CF923A
:101E5000DF92EF92FF920F931F93DF93CF93CDB753
:101E6000DEB728970FB6F894DEBF0FBECDBF7A83DA
:101E700069831A01CA010E9413042C012FEF8F3FBE
:101E8000920771F08D32910519F0AA24A3940DC028
:101E9000C1010E9413042C014FEF8F3F940719F4E6
:101EA0002FEF3FEF16C1AA24AA94C201C0970A9748
:101EB00018F000E010E018C000E010E0C80173E086
:101EC000880F991F7A95E1F7000F111F800F911F5E
:101ED000820100531040080F191FC1010E94130412
:101EE0002C01C0970A9750F35EE245165104D1F0D9
:101EF00085E648165104B1F095E44916510491F075
:101F00008A2D992787FD9095FC010E9FC0010F9F98
:101F1000900D1E9F900D1124E981FA81928781878F
:101F200083E0D0C0B801882777FD8095982F0E9464
:101F30007D2E7B018C01FEE24F16510419F0CC245A
:101F4000DD242DC0C1010E9413042C01CC24DD240A
:101F5000C801B70120E030E040E251E40E942D2F9B
:101F60007B018C0120ED3FEF420E531EB20188270A
:101F700077FD8095982F0E947D2E9B01AC01C801B2
:101F8000B7010E947A2D7B018C010894C108D10809
:101F9000C1010E9413042C01C0970A97C8F235E6CC
:101FA0004316510449F045E44416510429F01886BB
:101FB0001F826624639437C0C1010E9413042C0160
:101FC0008B32910529F4C1010E9413042C0104C035
:101FD0008DE24816510419F06624639406C0C101CD
:101FE0000E9413042C0166246A9418861F8215C06F
:101FF0008F81988553E0880F991F5A95E1F7EF81FB
:10200000F885EE0FFF1FE80FF91FE20FF31FF887A7
:10201000EF83C1010E9413042C0192012053304030
:102020002A30310528F36A2D772767FD7095872FB1
:10203000972F0E947D2EA80197010E942D2F6B8360
:102040007C838D839E83B601882777FD8095982FAA
:102050000E947D2E5B016C012F813885B901882794
:1020600077FD8095982F0E947D2E7B018C01662D37
:10207000772767FD7095872F972F0E947D2E9B01F4
:10208000AC01C801B7010E942D2F9B01AC01C60114
:10209000B5010E947A2D9B01AC0160E070E080E206
:1020A00091E40E94902F9B01AC016B817C818D811A
:1020B0009E810E942D2FE981FA8161877287838733
:1020C000948784E08087C201B1010E94F30420E07C
:1020D00030E0C90128960FB6F894DEBF0FBECDBF21
:1020E000CF91DF911F910F91FF90EF90DF90CF90F4
:1020F000BF90AF906F905F904F903F902F9008955A
:102100008DE090E00E940B27FC01009729F08DE004
:10211000DF011D928A95E9F7CF0108950E94801092
:10212000FC01009711F087E08087CF0108950E949D
:102130008010FC01009711F086E08087CF010895A0
:102140000F931F93CF93DF938B010E948010EC01BC
:10215000009739F085E08887C8010E942B038987A2
:102160009A87CE01DF91CF911F910F910895CF9261
:10217000DF92EF92FF920F931F938C017B016A0114
:10218000B9010E94A0109C01C801B701A6010E94DC
:10219000AE0B1F910F91FF90EF90DF90CF900895BD
:1021A000EF92FF920F931F937A018B010E94801090
:1021B000FC01009731F084E08087E186F286038796
:1021C0001487CF011F910F91FF90EF900895AF9268
:1021D000BF92CF92DF92EF92FF920F931F937C01F9
:1021E0006B015A01B901A8010E94D0109C01C701DE
:1021F000B601A5010E94AE0B1F910F91FF90EF90C9
:10220000DF90CF90BF90AF900895CF93DF93EB0115
:102210000E948010FC01009721F083E08087D28724
:10222000C187CF01DF91CF910895CF92DF92EF92D6
:10223000FF920F931F938C017B016A01B9010E94E9
:1022400005119C01C801B701A6010E94AE0B1F91A8
:102250000F91FF90EF90DF90CF9008956F927F9253
:102260008F929F92BF92CF92DF92EF92FF920F9345
:102270001F93CF93DF937C014B018A013901CA017F
:102280000E9413048B37910509F05DC087E0F401CB
:102290008087C701B8010E94930CC8010E941304F3
:1022A0008D37910509F452C0B8010E94F304BB2494
:1022B000BA94C7010E948010EC01009709F443C052
:1022C000BB2021F0F4019783868305C0F601938338
:1022D0008283DD82CC82C701B8010E94930CC701C2
:1022E000BE01A8010E94A90E8F5F9F4F61F1C70137
:1022F000B8010E94930C89859A85998388831A86F0
:102300001986C8010E941304CA97E9F4C701B801ED
:102310000E94930CC701BE01A80193010E94B7114E
:102320008F5F9F4F81F0C701B8010E94930CC801D5
:102330000E941304BB246E018C32910509F4B9CFBD
:102340008D37910519F02FEF3FEF02C020E030E00C
:10235000C901DF91CF911F910F91FF90EF90DF9016
:10236000CF90BF909F908F907F906F9008958F92A5
:102370009F92AF92BF92CF92DF92EF92FF920F9314
:102380001F93DF93CF93CDB7DEB729970FB6F8949D
:10239000DEBF0FBECDBF6C015B017A014901411563
:1023A000510509F4ADC0BA010E94930C8F5F9F4F95
:1023B00009F4A6C0C7010E9413048C018FEF0F3FE0
:1023C000180709F49DC0C801B7010E94F3048F5F8C
:1023D0009F4F09F495C00232110531F4C601B501D1
:1023E000A7010E94A90E20C00D32110521F0C801DD
:1023F000C0970A9730F4C601B501A7010E94200FCB
:1024000013C00B35110539F4C601B501A7019401BC
:102410000E94961209C00B37110541F4C601B5019F
:10242000A70194010E942E119C016CC00E3611056B
:1024300001F519821A821B821C828E010F5F1F4FC9
:10244000C80161E070E044E050E097010E949E0402
:10245000049709F055C0C8016AE271E044E050E019
:102460000E947703009709F04BC082E0F501808756
:1024700044C006361105F9F48E010B5F1F4F85E04D
:10248000F80111928A95E9F7C80161E070E045E032
:1024900050E097010E949E04059791F5C8016FE2F4
:1024A00071E045E050E00E947703009749F5F5019F
:1024B0001086118622C00437110511F519821A827F
:1024C0001B821C828E010F5F1F4FC80161E070E00C
:1024D00044E050E097010E949E04049789F4C801EB
:1024E00065E371E044E050E00E947703009741F417
:1024F00081E0F50180878FEF818720E030E002C026
:102500002FEF3FEFC90129960FB6F894DEBF0FBE3B
:10251000CDBFCF91DF911F910F91FF90EF90DF9092
:10252000CF90BF90AF909F908F9008956F927F92C1
:102530008F929F92BF92CF92DF92EF92FF920F9372
:102540001F93CF93DF936C014B01EA013901CA015C
:102550000E9413048B35910509F03FC086E0F40119
:102560008087C601BE010E94930CCE010E94130415
:102570008D359105A9F1BE010E94F304BB24BA94E4
:10258000C6010E9480108C01009739F1BB2021F018
:10259000F4019783868306C0F70193838283FC014D
:1025A000F582E482C601BE010E94930CC601B80107
:1025B000AE0193010E94B711892B79F4C601BE01C7
:1025C0000E94930CCE010E941304BB2478018C322C
:1025D0009105B1F28D35910519F02FEF3FEF02C053
:1025E00020E030E0C901DF91CF911F910F91FF9062
:1025F000EF90DF90CF90BF909F908F907F906F90E3
:102600000895CF92DF92EF92FF920F931F93CF9393
:10261000DF937C018B016A0161157105B1F00E94A5
:102620008010EC01009799F0C701B8010E94930C4B
:10263000C701BE01A80196010E94B7118F5F9F4F8D
:1026400031F4C701BE010E94E30BC0E0D0E0CE012F
:10265000DF91CF911F910F91FF90EF90DF90CF907E
:102660000895EF92FF920F931F937C01CB010E947C
:10267000BD138C01C701B80140E050E00E94011376
:10268000F82EE92EC8010E94AA138F2D9E2D1F91AE
:102690000F91FF90EF900895FC01A485B5851296E7
:1026A0002D913C911397ED91FC911197E20FF31F3F
:1026B0008081882319F4EFEFFFEF0AC02F5F3F4FAF
:1026C00013963C932E931297E82FFF27E7FDF09582
:1026D000CF010895FB01648575850E94E41388236A
:1026E00019F420E030E002C02FEF3FEFC901089558
:1026F0000F931F93CF93DF93EC018C859D850E94F0
:1027000007148C01009711F01D861C86CE010E94D3
:102710009C03C801DF91CF911F910F910895CF9332
:10272000DF938AE693E160E070E00E94C703EC016A
:10273000009761F00E944A14009731F4CE010E9484
:102740009C03C0E0D0E002C09D878C87CE01DF9162
:10275000CF910895CF93DF93EC01009759F08C85CA
:102760009D85009711F00E94A8271D861C86CE012A
:102770000E949C03DF91CF9108950F931F93CF93F5
:10278000DF938C0180E090E06CE473E10E94C7036A
:10279000EC01009799F084E090E00E940B27FC0187
:1027A000009739F011830083138212829D878C87F2
:1027B00005C0CE010E949C03C0E0D0E0CE01DF91B5
:1027C000CF911F910F910895482FDB0114962D9101
:1027D0003C91159712968D919C9113972817390764
:1027E00078F4ED91FC911197E20FF31F408314965A
:1027F0008D919C911597019615969C938E931497A5
:1028000080E00895009711F00E94A82708950F9383
:102810001F93CF93DF938C01DC0114962D913C9193
:1028200015972115310541F0ED91FC91E20FF31F51
:10283000319780818823B1F0F80182819381281734
:10284000390780F40190F081E02DE20FF31F108230
:10285000D80114968D919C911597019615969C938D
:102860008E931497F801848195810E940B27EC01C7
:10287000009751F063E775E00E947003D8011D9244
:102880001C92C8010E94A827CE01DF91CF911F9111
:102890000F910895CF93DF9386E090E00E940B277D
:1028A000DC010097A9F0E3E7F5E01196FC93EE93C5
:1028B00080E091E0EF019C01199221503040E1F756
:1028C00013969C938E93129715961C921E921497B2
:1028D000CD01DF91CF910895362F242F84EF91E021
:1028E0006DE1432F0E94EA0A0895EF92FF920F9341
:1028F0001F93CF93DF93162F7A01022F84EF91E07D
:102900006DE1412F0E94270B84EF91E06DE1412F93
:10291000202F0E94650AC0E0D0E010E009C084EFDB
:1029200091E00E94C608F701EC0FFD1F80832196FD
:10293000C017D107A4F3DF91CF911F910F91FF90A2
:10294000EF9008950F931F93DF93CF930F92CDB71E
:10295000DEB78C016AE2AE014F5F5F4F21E00E945B
:10296000751449814D7FC8016AE20E946C140F9072
:10297000CF91DF911F910F9108950F931F93DF93D4
:10298000CF930F92CDB7DEB78C016AE2AE014F5FF5
:102990005F4F21E00E94751449814160C8016AE2DD
:1029A0000E946C140F90CF91DF911F910F910895A9
:1029B0000F931F93DF93CF930F92CDB7DEB78C01A8
:1029C0006AE2AE014F5F5F4F21E00E9475144981BA
:1029D0004E7FC8016AE20E946C140F90CF91DF9184
:1029E0001F910F9108950F931F93DF93CF930F9231
:1029F000CDB7DEB78C0184EF91E00E94B508C80125
:102A00000E94D814C8016EE040E00E946C14C80116
:102A10000E94A214C8010E94BD14C8016DE0AE015D
:102A20004F5F5F4F21E00E9475140F90CF91DF91AF
:102A30001F910F91089587E192E00E94F314089589
:102A4000FC018FEF9FEF91838083938382831092A9
:102A500018021092190210921A0210921B02109280
:102A60001C0210921D0210921E0210921F028AE098
:102A700090E0978386838CE390E09093A30180930A
:102A8000A20181E080878EE591E09583848308959B
:102A9000FC01758364830895FC0177836683089540
:102AA00020E08091180290911902892B90911A02CE
:102AB000892B90911B02892B90911C02892B90915C
:102AC0001D02892B90911E02892B90911F02892B48
:102AD00009F021E0822F0895109218021092190235
:102AE00010921A0210921B0210921C0210921D02E8
:102AF00010921E0210921F02089520911802309128
:102B0000190240911A0250911B0260911C027091AF
:102B10001D0280911E0290911F0208958091200253
:102B200090912102089580912402909125020895A8
:102B30002F923F924F925F926F927F928F929F92CD
:102B4000AF92BF92CF92DF92EF92FF920F931F93BB
:102B5000DF93CF93CDB7DEB762970FB6F894DEBFA1
:102B60000FBECDBF3C0180912602909127026FE1FC
:102B700070E00E9416314B017B0100E010E02091D3
:102B8000A2013091A301442737FD4095542FC8017D
:102B9000B7010E94F7300E947B2E2AE037ED43E216
:102BA0005CE30E942D2F0E944F2EA8019701220F57
:102BB000331F441F551F2E0D3F1D401F511F59012C
:102BC0006A01A61AB70AC80AD90AAD82BE82CF82A4
:102BD000D8865B016C01A20EB31EC41ED51EA9824D
:102BE000BA82CB82DC82AA24BB24650121E030E0DA
:102BF0003A87298717012801261A370A480A590AED
:102C0000A8019701260F371F481F591F2F87388BA0
:102C1000498B5A8B7AC0E985FA85EE0FFF1FEA5D72
:102C2000FD4F808191819C0140E050E022163306E7
:102C30004406550658F58F859889A989BA892817B9
:102C400039074A075B0710F5E985FA85EE0FFF1F84
:102C5000E85DFD4F0190F081E02D7F0100E010E084
:102C6000EB86FC860D871E878D819E81AF81B8859E
:102C70008E159F05A007B10748F489819A81AB8121
:102C8000BC81E816F9060A071B0778F1ED80FE8083
:102C90000F811885E216F3060407150758F5898198
:102CA0009A81AB81BC81281739074A075B0710F569
:102CB000E985FA85EE0FFF1FE85DFD4F8081918168
:102CC000A0E0B0E0281639064A065B0698F4EF84C7
:102CD000F88809891A898E159F05A007B10750F455
:102CE0000894A11CB11CC11CD11CAA0CBB1CCC1C7F
:102CF000DD1C05C07A866986AA24BB246501098586
:102D00001A850E5F1F4F1A87098729853A85261570
:102D1000370508F480CFA60195015695479537955C
:102D2000279580E36816710440F1211531054105AE
:102D3000510511F480E028C0209318023093190245
:102D400040931A0250931B0210921C0210921D0213
:102D500010921E0210921F027694679470922102C4
:102D600060922002909223028092220281E090E001
:102D7000909325028093240206C080E0211531053E
:102D80004105510509F081E062960FB6F894DEBF67
:102D90000FBECDBFCF91DF911F910F91FF90EF90AC
:102DA000DF90CF90BF90AF909F908F907F906F906B
:102DB0005F904F903F902F9008959F92AF92BF9257
:102DC000CF92DF92EF92FF920F931F93CF93DF93F7
:102DD0006C0120E0A0E0B0E000E010E0FF24EE2471
:102DE0009924AA24BB24C1E0D0E075C0FE01EE0FF7
:102DF000FF1FEA5DFD4F0190F081E02D86E0E53A8E
:102E0000F80760F088E0EC3FF80768F43A2F4B2FA2
:102E1000502F612F7F2D8E2D992D3FC082E0ED3BED
:102E2000F80708F44AC0E451F54008F046C021967E
:102E3000FE01EE0FFF1FEA5DFD4F0190F081E02DD6
:102E400082E0ED3BF807B8F1E451F540A0F5E22F40
:102E5000EF5F31E0E21708F030E03A0F41E03A1757
:102E600008F040E04B0F51E04B1708F050E0500FD6
:102E700061E0501708F060E0610F71E0611708F041
:102E800070E07F0D81E07F1508F080E08E0D91E00D
:102E90008E1508F090E02E2F990D01E00E945F0141
:102EA000A32FB42F052F162FF72EE82E992E089456
:102EB000A11CB11C0FC0E6010DC0E60182E3C816DB
:102EC000D10444F420E0A0E0B0E000E010E0FF24F2
:102ED000EE2499242196CC15DD0508F487CF83E3F1
:102EE000C816D104B8F184E2A816B10499F53A2FB6
:102EF0004B2F502F612F7F2D8E2D992D01E00E9499
:102F0000E000FC01852F8370962F9C70892B11F1B6
:102F1000209318023093190240931A0250931B0217
:102F200060931C0270931D02E0931E02F0931F0237
:102F3000B0922102A092200288EE93E090932302A7
:102F40008093220285E090E09093250280932402F2
:102F500081E001C080E0DF91CF911F910F91FF9040
:102F6000EF90DF90CF90BF90AF909F900895AF9279
:102F7000BF92DF92EF92FF920F931F93CF93DF9355
:102F80005C01C1E0D0E020E0A0E0B0E000E010E0B3
:102F9000FF24EE24DD245AC0FE01EE0FFF1FEA5D80
:102FA000FD4F0190F081E02D85E0E531F80760F0FC
:102FB00086E0E43AF80760F43A2F4B2F502F612F48
:102FC0007F2D8E2D9D2D2DC081E0ED32F807A0F1D3
:102FD000EC5BF24088F5E22FEF5F31E0E21708F09A
:102FE00030E03A0F41E03A1708F040E04B0F51E073
:102FF0004B1708F050E0500F61E0501708F060E008
:10300000610F71E0611708F070E07F0D81E07F15BE
:1030100008F080E08E0D91E08E1508F090E02E2FE4
:103020009D0D01E00E945F01A32FB42F052F162FE5
:10303000F72EE82ED92E09C0E50120E0A0E0B0E08F
:1030400000E010E0FF24EE24DD242296CA15DB0503
:1030500008F4A2CF3A2F4B2F502F612F7F2D8E2DAA
:103060009D2D01E00E94E000E82F822F832BF1E5E7
:10307000AF16B104E8F1842B852B862B872B8E2B82
:10308000892B11F420E03DC02093180230931902DF
:1030900040931A0250931B0260931C0270931D020E
:1030A000E0931E0290931F02C50196958795909319
:1030B00021028093200284EF91E090932302809379
:1030C000220284E6A816B10418F483E090E006C05A
:1030D000F8E6AF16B10439F484E090E0909325024D
:1030E000809324020DC0109225021092240208C081
:1030F00020E0842B852B862B872B8E2B892B09F0A8
:1031000021E0822FDF91CF911F910F91FF90EF90DF
:10311000DF90BF90AF900895EF92FF920F931F93AF
:10312000CF93DF930E9426297B018C018091F802C6
:103130009091F902E701C81BD90BD093FF02C0930D
:10314000FE0223E1C938D20708F43DC0809126026F
:10315000909127028958934170F18091F6029091E5
:10316000F70201969093F7028093F6020197F1F42B
:103170008091FC029091FD028531910598F0813596
:10318000910518F00E94B7170DC08333910518F010
:103190000E94DD1607C001979093FD028093FC0208
:1031A0000E9498151092F7021092F6021092FD02FA
:1031B0001092FC0208C01092FD021092FC021092C4
:1031C000F7021092F6028091FC029091FD0288367F
:1031D000910540F01092FD021092FC021092F7024D
:1031E0001092F6028091FC029091FD02FC01EE0F1C
:1031F000FF1FEA5DFD4FD183C08301969093FD02CE
:103200008093FC02E092F802F092F9020093FA0235
:103210001093FB02DF91CF911F910F91FF90EF90E0
:1032200008950F931F938C01FC0180810E946328F5
:103230008FEF9FEFF801918380831F910F91089585
:10324000FC01808191812FEF8F3F9207D1F0109286
:1032500018021092190210921A0210921B02109278
:103260001C0210921D0210921E0210921F02109258
:103270002102109220026CE878E141E050E00E94C7
:1032800040280895FC01808191818617970729F0D5
:1032900071836083CF010E9420190895AF92BF927D
:1032A000DF92EF92FF920F931F93CF93DF93EC0186
:1032B0007B015A01088119818A819B818F5F9F4F11
:1032C00089F13FEF0F3F130711F4DD2405C0CE0154
:1032D0000E941119DD24D3948A8161E00E94892A19
:1032E0008C819D819C01E29EC001E39E900DF29E27
:1032F000900D11240E94A5298A8160E00E94892AEC
:103300008C819D819C01A29EC001A39E900DB29EC6
:10331000900D11240E94A529DD2021F0CE01B801D5
:103320000E944219DF91CF911F910F91FF90EF9072
:10333000DF90BF90AF900895FC018085813041F40B
:10334000CF0161E070E04FE150E00E944E19089516
:10335000823039F4CF0161E070E04AE050E00E9431
:103360004E190895FC018085813041F4CF0163E05E
:1033700070E041E050E00E944E190895823039F427
:10338000CF0162E070E041E050E00E944E190895E4
:10339000FC018085813041F4CF0161E070E043E0C1
:1033A00050E00E944E190895823039F4CF0161E057
:1033B00070E042E050E00E944E190895CF92DF92F3
:1033C000EF92FF920F931F93CF93DF938C016B01CA
:1033D000EE24FF2416C0803319F0813341F404C079
:1033E000C8010E94C81903C0C8010E94B2192196E1
:1033F0008881882381F7C8010E949C190894E11CE8
:10340000F11CF80186819781E816F90614F4E601AB
:10341000EFCFDF91CF911F910F91FF90EF90DF9051
:10342000CF9008950F931F938C01FC01828160E07F
:103430000E944A2A8FEF9FEFF801938382831F91A6
:103440000F910895FC01862F6283738361E00E94CF
:103450004A2A08952091210330E080912003281BFF
:103460003109C90108954091200380912103481733
:1034700018F02FEF3FEF0AC0E42FF0E0E050FD4FCF
:103480008081282F30E04F5F40932003C9010895C9
:10349000E091200380912103E81718F0EFEFFFEF90
:1034A00006C0F0E0E050FD4F8081E82FF0E0CF0152
:1034B00008950895109248031092470388EE93E010
:1034C000A0E0B0E08093490390934A03A0934B039C
:1034D000B0934C0382EB91E09093460380934503B5
:1034E0000895CF92DF92EF92FF920F931F93CF93A5
:1034F000DF937C016B018A01809144038823A1F052
:10350000C0E0D0E00DC0D701ED91FC91D601AC0F29
:10351000BD1F0190F081E02DC7016C9109952196A6
:10352000C017D10780F304C0CB01642F0E94D21AC8
:10353000C801DF91CF911F910F91FF90EF90DF9025
:10354000CF900895DF93CF930F92CDB7DEB7FC01F4
:103550006983809144038823C9F0809143038032BA
:1035600038F081E090E09383828320E030E015C062
:1035700080914203E82FF0E0EE5DFC4F998190834B
:103580008F5F809342038093430305C0CE01019671
:1035900061E00E94D21A21E030E0C9010F90CF9182
:1035A000DF910895482F613210F081E008958091F5
:1035B0005103843011F082E0089560939C03ABE7DF
:1035C000B3E0842F9C01F90102C081918D938E2F6D
:1035D000841B8617D0F380E008951F920F920FB6D8
:1035E0000F9211242F933F934F935F936F937F9389
:1035F0008F939F93AF93BF93EF93FF938091B90005
:1036000090E0887F90708036910509F4F2C0813691
:103610009105CCF58832910509F47BC0893291057A
:10362000B4F48031910509F46FC0813191053CF407
:10363000009709F447C1089709F04FC165C0883168
:10364000910509F466C0809709F047C182C08034B3
:10365000910509F4A4C08134910544F480339105A7
:1036600009F482C0C89709F038C189C08035910536
:1036700009F489C08835910509F496C0883491050C
:1036800009F02BC1AEC08839910509F413C18939FD
:103690009105ECF48837910509F4ABC089379105A1
:1036A0004CF48836910509F4A4C08037910509F0DF
:1036B00014C19FC08838910509F4FCC08039910578
:1036C00009F49DC08038910509F007C198C0803B7E
:1036D000910509F4C6C0813B91054CF4803A9105EF
:1036E00009F49FC0883A910509F0F7C0BAC0803C40
:1036F000910509F4E3C0883C910509F4DFC0883BDB
:10370000910509F0EAC0C2C0809152038093BB00CA
:10371000CFC09091790380917A03981768F49091C3
:103720007903E92FF0E0E75AFC4F80818093BB00DA
:103730009F5F90937903BCC080915303882309F461
:103740004BC085ED8093BC008091BC0084FDFCCF14
:10375000C2C080E28093BE0385ED8093BC0080915F
:10376000BC0084FDFCCFB7C080E38093BE0385ED31
:103770008093BC008091BC0084FDFCCFACC088E38A
:103780008093BE039BC0809179039091BB00E82F8A
:10379000F0E0E75AFC4F90838F5F8093790390911C
:1037A000790380917A0382C0809179039091BB0064
:1037B000E82FF0E0E75AFC4F90838F5F8093790306
:1037C00080915303882341F085ED8093BC00809164
:1037D000BC0084FDFCCF7FC081E08093540384EA69
:1037E0006EC085ED8093BC008091BC0084FDFCCF51
:1037F00072C083E0809351031092BD0359C0809141
:10380000BD03803208F056C08091BD039091BB008B
:10381000E82FF0E0E356FC4F90838F5F8093BD0369
:1038200047C08091BD03803230F4E091BD03F0E0E9
:10383000E356FC4F108285ED8093BC008091BC0064
:1038400084FDFCCF109251036091BD03E0915703BA
:10385000F09158038DE993E070E009951092BD0353
:103860002DC084E08093510310929B0310929C031F
:10387000E0915503F0915603099580919C038823AC
:1038800029F481E080939C0310927B0390919B0329
:10389000E92FF0E0E558FC4F80818093BB009F5FEB
:1038A00090939B0390919B0380919C03981710F435
:1038B00085EC01C085E88093BC000FC085EC809347
:1038C000BC0009C01092BE0385ED8093BC008091BE
:1038D000BC0084FDFCCF10925103FF91EF91BF918A
:1038E000AF919F918F917F916F915F914F913F9198
:1038F0002F910F900FBE0F901F901895FC017583AC
:10390000648308957F928F929F92AF92BF92CF92DD
:10391000DF92EF92FF920F931F93CF93DF935C019F
:10392000712E122FB32FA42FF52FE62F972F4701BB
:103930006501E501EE24FF241BC000FD02C080E309
:1039400001C081E388A30894E11CF11C202F372DCE
:10395000412F5B2F6A2F7F2F8E2F01E00E94E00006
:10396000022F732E142FB52FA62FF72FE82F219695
:10397000802F8729812B8B2B8A2B8F2B8E2B892BAA
:10398000E1F6A4014E195F09D501A80DB91DFD018D
:1039900020E030E090E30FC02417350720F0878D3A
:1039A000E601888302C0E60198832F5F3F4F31977D
:1039B0000894C11CD11C2815390570F31C92DF91A5
:1039C000CF911F910F91FF90EF90DF90CF90BF901C
:1039D000AF909F908F907F9008950F931F938C01CD
:1039E0000E941829605A75418F4F9F4FF8016083DC
:1039F0007183828393831F910F9108958FEB93E0DE
:103A00000E94ED1C80EB94E00E9420150895AF9277
:103A1000BF92DF92EF92FF920F931F93CF93DF93AA
:103A2000DC011496ED90FC901597DD2485E4A82E1A
:103A300084E0B82E6AC02091690430916A04F801CC
:103A4000828193812817390709F050C020916B04B7
:103A500030916C04848195812817390709F046C09C
:103A6000E50109900020E9F72197C554D440608111
:103A70007181DB01FD0101900020E9F73197EA1B1C
:103A8000FB0BCE17DF0791F585E494E0AE010E94B1
:103A90007703009759F5D8011E968C911E978823BD
:103AA00069F018964D915C91199716968D919C919D
:103AB00017976DE674E00E9485030FC06091AD0416
:103AC0007091AE04882777FD8095982F0E947D2EF7
:103AD000F8016287738784879587D8011F96ED91D7
:103AE000FC915097C801099581E001C080E090E009
:103AF0002D2D30E0822B932BDD24892B11F0DD243A
:103B0000D394E2E0F0E0EE0EFF1ED7010D911C9180
:103B10000115110509F08FCF8D2DDF91CF911F91E8
:103B20000F91FF90EF90DF90BF90AF9008952F928C
:103B30003F924F925F926F927F928F92AF92BF921D
:103B4000CF92DF92EF92FF920F931F93DF93CF9369
:103B500000D000D000D0CDB7DEB71B015A83498317
:103B60003C832B831E830D8326013701DA2C182D0D
:103B7000133008F092C086E192E00E948E105C0142
:103B8000009709F48AC086E192E00E9497107C01B8
:103B9000882031F486E192E0B5014AE351E00DC09E
:103BA000113031F486E192E0B50141E451E005C005
:103BB00086E192E0B50148E451E097010E94AE0B26
:103BC00086E192E00E948E108C0186E192E0B701BE
:103BD000A8010E94750B86E192E0B8014FE451E024
:103BE00091010E94B71086E192E0B80141E551E0F1
:103BF00029813A810E94151186E192E0B80143E5DE
:103C000051E02B813C810E941511DD2051F086E1AD
:103C100092E0B80145E551E02D813E810E94B71048
:103C200027C0C301B2010E944A2E6B017C01B6017C
:103C3000882777FD8095982F0E947D2E9B01AC01EF
:103C4000C301B2010E94DE2D882351F086E192E08B
:103C5000B80145E551E0930182010E94E71008C0D8
:103C600086E192E0B80145E551E096010E94151108
:103C700086E192E0B5010E94880E8C01009729F040
:103C800081E595E0B8010E94662D86E192E0B501DC
:103C90000E94E30BC8010E94A82726960FB6F8944D
:103CA000DEBF0FBECDBFCF91DF911F910F91FF906F
:103CB000EF90DF90CF90BF90AF908F907F906F90FC
:103CC0005F904F903F902F9008956F927F928F92C8
:103CD000AF92CF92DF92EF92FF920F931F93CF9309
:103CE000DF933C01FC01C481D58112C060817181E8
:103CF000428153812481358106811781C284D38416
:103D0000E484F584C301A68488240E94971D22962A
:103D1000E881F981309751F7DF91CF911F910F9191
:103D2000FF90EF90DF90CF90AF908F907F906F904B
:103D300008952F923F924F925F926F927F928F924F
:103D4000AF92CF92DF92EF92FF920F931F93DF9388
:103D5000CF93CDB7DEB72F970FB6F894DEBF0FBE67
:103D6000CDBF1C01822EA32EB42FA52FCB01CC24B6
:103D7000DD245BE0E52EF12C44E0642E712C6C0E0A
:103D80007D1E202F2F70F301EE0DFF1D20833BE0E1
:103D9000E316F10411F0C20ED11C0894E108F108F9
:103DA0002FEFE2162FEFF20671F09801482D5A2DF1
:103DB0006B2F7A2F04E00E94E0008901842EA52E4B
:103DC000B62FA72FDECF8C81893009F045C18F85B2
:103DD00090E03FE0C322DD248C159D0509F03CC135
:103DE00000D000D000D0EDB7FEB7319621E030E032
:103DF0002C0F3D1FADB7BEB712963C932E93119773
:103E000088E591E0938382838E818295807F9F8174
:103E1000890F848315820E94CF048DB79EB70696C2
:103E20000FB6F8949EBF0FBE8DBF8D818370813019
:103E300009F44EC0813038F0823009F462C083301A
:103E400009F00AC1A6C06A8524E6629FB001112468
:103E5000882777FD8095982F0E947D2E7B018C010D
:103E60006B852AE0629FB0011124882777FD809539
:103E7000982F0E947D2E9B01AC01C801B7010E94C2
:103E80007A2D7B018C016C8570E0882777FD809509
:103E9000982F0E947D2E9B01AC01C801B7010E94A2
:103EA0007A2D20E030E046E953E40E94792D20E0AD
:103EB00030E040E251E40E94E22D6B017C01C1013F
:103EC000BE016F5F7F4F40E050E024E130E05CC016
:103ED0006A852AE0629FB00111242B85620F711D53
:103EE000882777FD8095982F0E947D2E6B017C019D
:103EF000C101BE016F5F7F4F40E050E025E130E03F
:103F000043C07A8560E0882777FD8095982F0E94CE
:103F10007D2E7B018C016B8570E034E0660F771F8E
:103F20003A95E1F7882777FD8095982F0E947D2E9E
:103F30009B01AC01C801B7010E947A2D7B018C0165
:103F40006C8570E0882777FD8095982F0E947D2EE4
:103F50009B01AC01C801B7010E947A2D20E030E836
:103F600041E054E40E942D2F20E030E04AE754E481
:103F70000E94E22D6B017C01C101BE016F5F7F4F8A
:103F800040E050E026E130E000E010E0AA24882480
:103F900061C0698570E061707070762F6627882730
:103FA00077FD8095982F0E947D2E7B018C016A857C
:103FB00070E094E0660F771F9A95E1F7882777FD08
:103FC0008095982F0E947D2E9B01AC01C801B701FE
:103FD0000E947A2D7B018C016B8570E0882777FD2C
:103FE0008095982F0E947D2E9B01AC01C801B701DE
:103FF0000E947A2D20E030E040E251E40E94E22D60
:104000002B013C016C8570E080E090E00E947B2EEB
:104010006B017C01C101BE016F5F7F4F40E050E04A
:1040200027E130E000E010E0AA2488240E94971DD8
:10403000C301B20126E636E646E650E40E942D2F83
:104040006B017C01C101BE016F5F7F4F40E050E01A
:1040500028E130E00E94971D2F960FB6F894DEBF3E
:104060000FBECDBFCF91DF911F910F91FF90EF90C9
:10407000DF90CF90AF908F907F906F905F904F9038
:104080003F902F9008954F925F926F927F928F9200
:10409000AF92BF92CF92DF92EF92FF920F931F9356
:1040A000DF93CF93CDB7DEB72D970FB6F894DEBF71
:1040B0000FBECDBF2C01822EA32EB42FA52FCB0176
:1040C000CC24DD24E9E0EE2EF12C74E0672E712C77
:1040D0006C0E7D1E202F2F70F301EE0DFF1D20832F
:1040E00039E0E316F10411F0C20ED11C0894E10886
:1040F000F1086FEFE6166FEFF60671F09801482DA4
:104100005A2D6B2F7A2F04E00E94E0008901842E43
:10411000A52EB62FA72FDECF1C811A3009F063C061
:104120008D8590E07FE0C722DD248C159D0509F088
:104130005AC000D000D000D0EDB7FEB731965E0176
:104140000894A11CB11CADB7BEB71296BC92AE923A
:10415000119788E591E0938382838F8190E08E7040
:104160009070959587952E812295207F280F248326
:1041700015820E94CF042B859C854A856DB77EB73A
:104180006A5F7F4F0FB6F8947EBF0FBE6DBF8D8103
:10419000882349F564E6269FB0011124919F900180
:1041A0001124620F731F640F711D80E090E00E9464
:1041B0007B2E20E030E040E251E40E94E22D20E03E
:1041C00030E048E452E40E94792D6B017C01C20189
:1041D000B50140E050E02DE030E000E010E0AA241E
:1041E00088240E94971D2D960FB6F894DEBF0FBE4F
:1041F000CDBFCF91DF911F910F91FF90EF90DF9096
:10420000CF90BF90AF908F907F906F905F904F90C6
:1042100008952F923F924F925F926F927F928F926A
:104220009F92AF92BF92CF92DF92EF92FF920F9345
:104230001F93DF93CF93CDB7DEB72B970FB6F894CC
:10424000DEBF0FBECDBF9F838E83680179016D2DC8
:1042500070E080E090E00E947B2E20E030E048E4B7
:1042600052E40E94792D688779878A879B87D701D6
:10427000C60134E0B695A795979587953A95D1F7FD
:104280008F70882E9924B40123E0769567952A953E
:10429000E1F7882777FD8095982F0E947D2E20E0FA
:1042A00030E040E05FE30E942D2F2B013C01B40180
:1042B000759567957595679561707070882777FD1E
:1042C0008095982F0E947D2E20E030E040E85EE34C
:1042D0000E942D2F9B01AC01C301B2010E947A2DD7
:1042E0002B013C01B401759567956170707088274A
:1042F00077FD8095982F0E947D2E20E030E040E0F1
:104300005EE30E942D2F9B01AC01C301B2010E940C
:104310007A2D2B013C0181E088229924AA2497FC64
:10432000A094BA2CC501B4010E947D2E20E030E09B
:1043300040E85DE30E942D2F9B01AC01C301B20157
:104340000E947A2D9B01AC01688579858A859B85C1
:104350000E947A2D20E030E040E251E40E942D2FAF
:104360000E944A2E882777FD8095982F0E947D2EE7
:104370001B012C01ADB7BEB718970FB6F894BEBF9E
:104380000FBEADBFEDB7FEB731963E010894611C7C
:10439000711C12967C926E9211978BE591E093833B
:1043A0008283D701C6010CE1B695A79597958795AD
:1043B0000A95D1F795838483D701C6011AE1B69592
:1043C000A795979587951A95D1F783708F5F868308
:1043D00017820E94CF048DB79EB708960FB6F89447
:1043E0009EBF0FBE8DBF6701EE24FF249FEFC92241
:1043F000DD24B601882777FD8095982F0E947D2EB9
:104400006B017C018E819F81B30140E050E02EE181
:1044100030E000E010E0AA2488240E94971DC20129
:10442000B10120E030E040E251E40E94E22D6B0156
:104430007C018E819F81B30140E050E02FE130E0AC
:104440000E94971D2B960FB6F894DEBF0FBECDBF0E
:10445000CF91DF911F910F91FF90EF90DF90CF9060
:10446000BF90AF909F908F907F906F905F904F9094
:104470003F902F900895EF92FF920F931F93CF9349
:10448000DF9386E192E00E948E107C01009709F490
:1044900065C086E192E00E9497108C0186E192E06F
:1044A000B70144E651E098010E94AE0B86E192E02C
:1044B0000E948E10EC0186E192E0B801AE010E94EC
:1044C000750B86E192E0BE014FE451E025E434E053
:1044D0000E94B7102091690430916A0486E192E04D
:1044E000BE0141E551E00E94151120916B0430910D
:1044F0006C0486E192E0BE0143E551E00E94151193
:104500008091AF04882351F086E192E0BE0145E539
:1045100051E02DE634E00E94B7100BC02091AD04AD
:104520003091AE0486E192E0BE0145E551E00E9483
:10453000151186E192E0B7010E94880EEC01009708
:1045400029F081E595E0BE010E94662D86E192E0AA
:10455000B7010E94E30BCE010E94A827DF91CF9103
:104560001F910F91FF90EF900895CF92DF92EF92FD
:10457000FF920F931F93CF93DF93EB0186E192E0BD
:104580000E948E106C010097A9F186E192E00E94D2
:1045900097107C0186E192E0B60148E651E0970170
:1045A0000E94AE0B86E192E00E948E108C0186E1A3
:1045B00092E0B701A8010E94750B86E192E0B80174
:1045C0004EE651E09E010E94151186E192E0B6018F
:1045D0000E94880EEC01009729F081E595E0BE016C
:1045E0000E94662D86E192E0B6010E94E30BCE01A7
:1045F0000E94A827DF91CF911F910F91FF90EF901C
:10460000DF90CF900895AF92BF92CF92DF92EF925A
:10461000FF920F931F93CF93DF9305EC13E086E196
:1046200092E0B8010E9431135C0180E8F801119218
:104630008A95E9F7A114B10411F480E08DC086E1F8
:1046400092E0B5010E94590B882309F47CC086E1F1
:1046500092E0B5014AE351E00E94930BBC01009740
:1046600009F471C086E192E040E00E94660BEC0123
:10467000009709F468C086E192E0BE014FE451E082
:104680000E94930B8C0186E192E0BE0141E551E06E
:104690000E94930B7C0186E192E0BE0143E551E06C
:1046A0000E94930B6C0186E192E0BE0145E551E06A
:1046B0000E94930BEC010115110509F444C0F801A7
:1046C0008085853009F03FC06185728585E494E07E
:1046D00044E250E00E948503E114F104A1F1F701E6
:1046E0008085833081F58185928590936A048093DB
:1046F0006904C114D10439F1F6018085833019F5BC
:104700008185928590936C0480936B042097D9F0F7
:104710008885853061F469857A858DE694E040E48A
:1047200050E00E94850381E08093AF040AC083308B
:1047300051F489859A859093AE048093AD041092CC
:10474000AF0401E001C000E086E192E0B5010E9403
:10475000E30B802F011181E0DF91CF911F910F9129
:10476000FF90EF90DF90CF90BF90AF900895CF93E0
:10477000DF9381E595E00E94EE2B892B19F4CFEFB2
:10478000DFEF1CC0C0E0D0E012C0C038D105B1F0EE
:1047900081E595E00E941F2CFE01EB53FC4F8083C6
:1047A000219662E070E080E090E00E944C2981E573
:1047B00095E00E94EE2B181619063CF3CE01DF910E
:1047C000CF910895BF92CF92DF92EF92FF920F9315
:1047D0001F93CF93DF93EC010E94B723181619069D
:1047E0000CF0D3C0CE010E940323882309F4C8C073
:1047F000CE010E94071D882309F0C7C0809169047B
:1048000090916A04892B09F0B7C080916B04909154
:104810006C0423E0873E920791F023E0883E9207E4
:1048200024F40B9709F0A4C051C023E08B3E9207FB
:1048300009F482C08F5E934009F09AC021C08DE6D2
:1048400094E060E070E040E150E00E94DE017B0116
:104850008C015FEFC52ED12CB601601B71098CE075
:104860000E94EA29CF18D10888E0B6010E94EA29FF
:10487000E094F0948FEFE822FF2487E0B70123C093
:104880008DE694E060E070E040E150E00E94DE01DF
:10489000B62EE72E8093B9044FEFC42ED12CB6016B
:1048A000681B71098AE00E94EA29E092BA04B60105
:1048B0006E1971098BE00E94EA29B092BB04CB18F3
:1048C000D10889E0B6010E94EA294AC085E494E053
:1048D0000E940D03823049F0833061F0813079F419
:1048E00080EB94E06EE070E00EC080EB94E06FE04F
:1048F00070E009C080EB94E060E170E004C080EB00
:1049000094E064E070E00E94221A80EB94E06EE58F
:1049100071E00E94481580EB94E068E070E00E942E
:104920004C1580EB94E06DE674E00E94DE1980EB9C
:1049300094E00E94121A14C08DE694E063E771E0DF
:104940000E946703009781F48DE694E067E771E0C9
:104950000E9470038DE694E06FE771E00E945C03B3
:10496000CE010E943B2211C0CE0164E070E00BC07A
:10497000CE0163E070E007C0CE0162E070E003C0EA
:10498000CE0161E070E00E94B522DF91CF911F91CE
:104990000F91FF90EF90DF90CF90BF9008954F92CE
:1049A0005F926F927F928F92AF92CF92DF92EF924F
:1049B000FF920F931F93DF93CF93CDB7DEB72A9764
:1049C0000FB6F894DEBF0FBECDBF2C0181E595E098
:1049D0000E94EE2B181619061CF4C2010E94E22355
:1049E00000D000D000D0EDB7FEB731968E010F5F3A
:1049F0001F4FADB7BEB712961C930E93119774E874
:104A0000E72E71E0F72EF382E2828091B90484836D
:104A100015820E94CF048DB79EB706960FB6F89404
:104A20009EBF0FBE8DBF64E0662E712C6C0E7D1E86
:104A3000C301B8010E94700300D000D000D0EDB7D0
:104A4000FEB73196ADB7BEB712961C930E93119771
:104A5000F382E2828091BA04848315820E94CF049B
:104A60008DB79EB706960FB6F8949EBF0FBE8DBF4A
:104A7000C301B8010E945C0300D000D000D0EDB7A4
:104A8000FEB73196ADB7BEB712961C930E93119731
:104A9000F382E2828091BB04848315820E94CF045A
:104AA0008DB79EB706960FB6F8949EBF0FBE8DBF0A
:104AB000C301B8010E945C03C20169E871E040E0F3
:104AC00050E02FEE33E083010F2EF0E0CF2EF0E028
:104AD000DF2EF0E0EF2EF0E0FF2EF02DAA24A394BD
:104AE00088240E94971D85B190E08C01017110709F
:104AF000FBB084FF04C0C3016BE871E003C0C301D5
:104B00006EE871E00E947003CE01049600FF03C0BE
:104B10006BE871E002C06EE871E00E945C03CE01B8
:104B20000496F7FE03C06BE871E002C06EE871E026
:104B30000E945C03C20169E871E040E050E027EEAA
:104B400033E08E010C5F1F4F0F2EF0E0CF2EF0E010
:104B5000DF2EF0E0EF2EF0E0FF2EF02DAA24A3943C
:104B600088240E94971D81E595E00E94EE2B18167F
:104B700019061CF4C2010E94E2232A960FB6F8948B
:104B8000DEBF0FBECDBFCF91DF911F910F91FF9080
:104B9000EF90DF90CF90AF908F907F906F905F906D
:104BA0004F900895FF920F931F93162F05B1FBB0FE
:104BB0008CE061E00E94892A88E061E00E94892AF5
:104BC00087E061E00E94892A812F60E00E94892AA3
:104BD0006CE370E080E090E00E944C298CE061E0A2
:104BE0000E94892A88E061E00E94892A87E061E0CA
:104BF0000E94892A64E170E080E090E00E944C29E4
:104C000005B9FBB81F910F91FF9008958F929F9265
:104C1000AF92BF92CF92DF92EF92FF920F931F93CA
:104C2000CF93DF93EC0181E595E00E94EE2B1816FF
:104C300019061CF4CE010E94E22380EB94E060E0B0
:104C400070E00E94421980EB94E00E945015882386
:104C500009F49BC080EB94E00E949315892B09F422
:104C600094C080EB94E00E949315069708F08DC0E5
:104C700080EB94E00E947D158901F42EE52ED62E5E
:104C8000C72EB82EA92E822F812B8F298E298D29F0
:104C90008C298B298A29D1F1CE0168E00E94D22586
:104CA00080EB94E00E949315039751F4CE012F2DD1
:104CB0003E2D4D2D5C2D6B2D7A2D0E94432061C021
:104CC00080EB94E00E949315049751F4CE012F2DB0
:104CD0003E2D4D2D5C2D6B2D7A2D0E94991E51C0BD
:104CE00080EB94E00E949315059751F4CE012F2D8F
:104CF0003E2D4D2D5C2D6B2D7A2D0E94092141C03A
:104D000080EB94E00E948E15819748F0CE0169E80F
:104D100071E040E050E02BE030E08B0123C080EBFD
:104D200094E00E947D158901D42EC52EB62EA72EA3
:104D3000982E892E80EB94E00E948E157C018DE6E2
:104D400094E02D2D3C2D4B2D5A2D692D782D0E9450
:104D5000821CCE0169E871E040E050E02BE030E0D9
:104D60000DE614E00F2EF0E0CF2EF0E0DF2EF0E0A5
:104D7000EF2EF0E0FF2EF02DAA24A39488240E94A9
:104D8000971D80EB94E00E946C1581E595E00E94F0
:104D9000EE2B181619061CF4CE010E94E223DF91B7
:104DA000CF911F910F91FF90EF90DF90CF90BF9028
:104DB000AF909F908F900895EF92FF920F931F9363
:104DC000CF93DF93EC010E9406260E9418297B01F5
:104DD0008C0188819981AA81BB81A8019701281B38
:104DE000390B4A0B5B0BDA01C90181539547A0408F
:104DF000B04050F0CE010E94CF24CE010E94651E2B
:104E0000E882F9820A831B83DF91CF911F910F9172
:104E1000FF90EF9008950F931F93CF93DF93BC0102
:104E20008230910510F462E070E0E0917506F09137
:104E30007606A0E0B0E040E050E024C0808191819F
:104E400086179707D0F08617970771F482819381B0
:104E5000109729F013969C938E9312972CC09093E1
:104E600076068093750627C04115510519F0841701
:104E7000950718F4EF018D01AC01DF018281938168
:104E80009C01F9013097D1F641155105F9F0CA019D
:104E9000861B970B8430910580F48A819B810115D4
:104EA000110521F0F8019383828304C09093760664
:104EB00080937506FE01329645C0FE01E80FF91F8A
:104EC000619371930297998388833CC080917306A4
:104ED00090917406892B41F48091A6019091A701CD
:104EE00090937406809373064091A8015091A90194
:104EF0004115510541F44DB75EB78091A4019091E1
:104F0000A501481B590B2091730630917406241794
:104F10003507B0F4CA01821B930B8617970780F000
:104F2000AB014E5F5F4F8417950750F0420F531F40
:104F30005093740640937306F9016193719302C014
:104F4000E0E0F0E0CF01DF91CF911F910F91089544
:104F5000CF93DF939C01009709F48FC0EC01229757
:104F60001B821A8260917506709176066115710533
:104F700081F488819981820F931F2091730630916B
:104F800074062817390739F5D0937406C093730651
:104F900074C0DB0140E050E0AC17BD0708F1BB83F3
:104FA000AA83FE0121913191E20FF31FAE17BF07D3
:104FB00079F48D919C911197280F391F2E5F3F4FE7
:104FC0003983288312968D919C9113979B838A83B2
:104FD0004115510571F4D0937606C09375064DC006
:104FE00012968D919C911397AD01009711F0DC0101
:104FF000D3CFDA011396DC93CE931297FA01219165
:105000003191E20FF31FCE17DF0769F48881998190
:10501000280F391F2E5F3F4FFA01318320838A8189
:105020009B8193838283E0E0F0E0DB0112968D9117
:105030009C911397009719F0BC01FD01F6CFAB01CD
:105040004E5F5F4FDB018D919C91840F951F2091E6
:105050007306309174062817390779F4309729F4CC
:10506000109276061092750602C013821282425088
:1050700050405093740640937306DF91CF9108958A
:10508000823000F5E82FF0E0EE0FFF1FE454FB4FF5
:1050900071836083882319F08130A1F408C0809166
:1050A00069008C7F842B80936900E89A0895809131
:1050B0006900440F551F440F551F837F842B809335
:1050C0006900E99A0895823080F4882319F08130CC
:1050D00021F402C0E89801C0E998E82FF0E0EE0F53
:1050E000FF1FE454FB4F1182108208951F920F920C
:1050F0000FB60F9211242F933F934F935F936F93AB
:105100007F938F939F93AF93BF93EF93FF93809180
:10511000BC049091BD04892B29F0E091BC04F0916E
:10512000BD040995FF91EF91BF91AF919F918F9130
:105130007F916F915F914F913F912F910F900FBE93
:105140000F901F9018951F920F920FB60F92112477
:105150002F933F934F935F936F937F938F939F937F
:10516000AF93BF93EF93FF938091BE049091BF04E0
:10517000892B29F0E091BE04F091BF040995FF91BD
:10518000EF91BF91AF919F918F917F916F915F91BF
:105190004F913F912F910F900FBE0F901F90189538
:1051A0001F920F920FB60F9211242F933F938F935C
:1051B0009F93AF93BF938091C4049091C504A09135
:1051C000C604B091C7043091C8040196A11DB11D59
:1051D000232F2D5F2D3720F02D570196A11DB11DD6
:1051E0002093C8048093C4049093C504A093C6047C
:1051F000B093C7048091C0049091C104A091C204EF
:10520000B091C3040196A11DB11D8093C004909379
:10521000C104A093C204B093C304BF91AF919F9106
:105220008F913F912F910F900FBE0F901F90189567
:105230008FB7F8942091C4043091C5044091C604FE
:105240005091C7048FBFB901CA0108959FB7F89460
:105250002091C0043091C1044091C2045091C30414
:1052600086B5A89B06C08F3F21F02F5F3F4F4F4F61
:105270005F4F9FBF542F432F322F2227280F311DFE
:10528000411D511D82E0220F331F441F551F8A9577
:10529000D1F7B901CA0108959B01AC017FB7F89419
:1052A0008091C0049091C104A091C204B091C30444
:1052B00066B5A89B05C06F3F19F00196A11DB11DF1
:1052C0007FBFBA2FA92F982F8827860F911DA11D68
:1052D000B11D62E0880F991FAA1FBB1F6A95D1F705
:1052E000BC012DC0FFB7F8948091C0049091C10417
:1052F000A091C204B091C304E6B5A89B05C0EF3FDE
:1053000019F00196A11DB11DFFBFBA2FA92F982F2B
:1053100088278E0F911DA11DB11DE2E0880F991FF6
:10532000AA1FBB1FEA95D1F7861B970B885E934097
:10533000C8F2215030404040504068517C4F211508
:1053400031054105510571F60895019739F0880F2F
:10535000991F880F991F02970197F1F70895789484
:1053600084B5826084BD84B5816084BD85B582606A
:1053700085BD85B5816085BDEEE6F0E08081816008
:105380008083E1E8F0E01082808182608083808108
:1053900081608083E0E8F0E0808181608083E1EBE0
:1053A000F0E0808184608083E0EBF0E080818160C8
:1053B0008083EAE7F0E0808184608083808182607E
:1053C0008083808181608083808180688083109267
:1053D000C10008951F93CF93DF93182FEB0161E075
:1053E0000E944A2A209709F44AC0CF3FD10509F408
:1053F00049C0E12FF0E0E45BFE4F84918330C1F0BF
:10540000843028F4813051F08230B1F50CC0863000
:1054100019F1873049F1843079F514C084B580687A
:1054200084BDC7BD33C084B5806284BDC8BD2EC0F5
:1054300080918000806880938000D0938900C09321
:10544000880024C080918000806280938000D09387
:105450008B00C0938A001AC08091B000806880934E
:10546000B000C093B30012C08091B00080628093FE
:10547000B000C093B4000AC0C038D1051CF4812F1D
:1054800060E002C0812F61E00E94892ADF91CF9104
:105490001F910895CF93DF93482F50E0CA01885C95
:1054A0009E4FFC0134914C5D5E4FFA01849188233C
:1054B00069F190E0880F991FFC01EA5FFE4FA5910A
:1054C000B491FC01E05FFE4FC591D491662351F485
:1054D0002FB7F8948C91932F909589238C93888182
:1054E00089230BC0623061F42FB7F8948C91932F0D
:1054F000909589238C938881832B88832FBF06C046
:105500009FB7F8948C91832B8C939FBFDF91CF91A1
:105510000895482F50E0CA01845B9E4FFC012491FE
:10552000CA01885C9E4FFC0194914C5D5E4FFA016C
:105530003491332309F440C0222351F1233071F018
:10554000243028F42130A1F0223011F514C0263087
:10555000B1F02730C1F02430D9F404C0809180002C
:105560008F7703C0809180008F7D8093800010C072
:1055700084B58F7702C084B58F7D84BD09C08091CA
:10558000B0008F7703C08091B0008F7D8093B00012
:10559000E32FF0E0EE0FFF1FE05FFE4FA591B49107
:1055A0002FB7F894662321F48C919095892302C03B
:1055B0008C91892B8C932FBF089508951F920F9281
:1055C0000FB60F9211242F933F934F938F939F9376
:1055D000EF93FF938091C00082FD1DC04091C600F3
:1055E0002091090530910A052F5F3F4F2F733070CE
:1055F00080910B0590910C052817390771F0E09107
:105600000905F0910A05E753FB4F408330930A05E3
:105610002093090502C08091C600FF91EF919F91F0
:105620008F914F913F912F910F900FBE0F901F9030
:105630001895E0915D05F0915E05E05CFF4F81916A
:10564000919120813181821B930B8F739070892BF4
:1056500011F00E94DD2A08951F920F920FB60F924B
:1056600011242F933F938F939F93EF93FF93209158
:105670004D0530914E0580914F05909150052817AA
:10568000390731F48091C1008F7D8093C10014C02F
:10569000E0914F05F0915005E35FFA4F2081809132
:1056A0004F059091500501968F739070909350051F
:1056B00080934F052093C600FF91EF919F918F91AA
:1056C0003F912F910F900FBE0F901F901895AF92A2
:1056D000BF92DF92EF92FF920F931F93CF93DF93CE
:1056E000EC017A018B01DD24403081EE580780E027
:1056F000680780E0780711F0DD24D39491E0A92EAB
:10570000B12CEC89FD89DD2069F0C50108A002C03B
:10571000880F991F0A94E2F7808360E079E08DE3B7
:1057200090E005C0108260E874E88EE190E0A80186
:1057300097010E943D3121503040404050405695E5
:1057400047953795279580E12030380720F0DD20F8
:1057500011F0DD24D6CFE889F9893083EA89FB8905
:10576000208319A2EE89FF89408121E030E0C90140
:105770000C8C02C0880F991F0A94E2F7482B4083D3
:10578000EE89FF894081C9010D8C02C0880F991FE5
:105790000A94E2F7482B4083EE89FF894081C901D2
:1057A0000E8C02C0880F991F0A94E2F7482B4083A1
:1057B000EE89FF8980810F8C02C0220F331F0A946B
:1057C000E2F7209528232083DF91CF911F910F913D
:1057D000FF90EF90DF90BF90AF900895DC011C9692
:1057E000ED91FC911D97E05CFF4F219131918081FB
:1057F0009181281B390B2F733070C9010895DC018A
:105800001C96ED91FC911D97E05CFF4F208131814A
:10581000E054F040DF01AE5BBF4F8D919C9111973A
:105820002817390719F42FEF3FEF07C08D919C918E
:10583000E80FF91F8081282F30E0C9010895DC01AD
:105840001C96ED91FC911D97E05CFF4F208131810A
:10585000E054F040DF01AE5BBF4F8D919C911197FA
:105860002817390719F42FEF3FEF10C08D919C9145
:105870001197E80FF91F20818D919C911197019646
:105880008F73907011969C938E9330E0C9010895A8
:10589000DC0191968C919197882339F05496ED9183
:1058A000FC915597808186FFF9CF91961C920895BF
:1058B000CF93DF93EC01EE85FF85E05CFF4F208105
:1058C0003181E054F0402F5F3F4F2F733070DF0184
:1058D000AE5BBF4F8D919C91119728173907D1F37B
:1058E000E05CFF4F80819181E054F040E80FF91FA8
:1058F0006083EE85FF85E05CFF4F31832083EE8976
:10590000FF89208181E090E00F8C02C0880F991FF1
:105910000A94E2F7282B208381E089A3EC89FD8992
:1059200080818064808381E090E0DF91CF91089551
:10593000109254051092530588EE93E0A0E0B0E079
:105940008093550590935605A0935705B09358053D
:1059500082EC91E0909352058093510589EC94E09C
:1059600090935E0580935D058DE095E090936005D2
:1059700080935F0585EC90E09093620580936105CC
:1059800084EC90E0909364058093630580EC90E054
:10599000909366058093650581EC90E0909368058F
:1059A0008093670582EC90E090936A058093690587
:1059B00086EC90E090936C0580936B0584E0809377
:1059C0006D0583E080936E0587E080936F0585E029
:1059D0008093700581E0809371050895CF93DF93E4
:1059E0000E94AF290E949408C9E1DBE20E9492075D
:1059F0002097E1F30E94192BF9CFCF92DF92EF921B
:105A0000FF920F931F93CF93DF937C016B018A0169
:105A1000C0E0D0E00FC0D6016D916D01D701ED91CE
:105A2000FC910190F081E02DC7010995C80FD91FA5
:105A3000015010400115110571F7CE01DF91CF9192
:105A40001F910F91FF90EF90DF90CF900895EF920C
:105A5000FF920F931F938C01DC01ED91FC9101905B
:105A6000F081E02D6DE009957C01D801ED91FC916C
:105A70000190F081E02DC8016AE009959C012E0D8E
:105A80003F1DC9011F910F91FF90EF900895CF9393
:105A9000DF93EC016115710519F420E030E00FC0CF
:105AA000DB010D900020E9F71197A61BB70BE881E9
:105AB000F9810280F381E02DAD0109959C01C901B6
:105AC000DF91CF9108950E94472D0895EF92FF92A4
:105AD0000F931F937C010E94472D8C01C7010E94E8
