:100000000C94B6000C94B4290C94E1290C94DE00F5
:100010000C94DE000C94DE000C94DE000C94DE00E8
:100020000C94DE000C94DE000C94DE000C94DE00D8
:100030000C94DE000C94DE000C94DE000C94DE00C8
:100040000C940E2A0C94DE000C941C2C0C946A2C3C
:100050000C94DE000C94DE000C94DE000C94DE00A8
:100060000C94AC140C94DE0007634236B79BD8A7FF
:100070001A39685618AEBAAB558C1D3CB7CC5763CD
:10008000BD6DEDFD753EF6177231BF000000803F7B
:1000900008000000BE922449123EABAAAA2ABECD97
:1000A000CCCC4C3E00000080BEABAAAAAA3E000009
:1000B0000000BF000000803F000000000008417801
:1000C000D3BB4387D1133D190E3CC3BD4282AD2B38
:1000D0003E68EC8276BED98FE1A93E4C80EFFFBE30
:1000E00001C4FF7F3F000000000074727565006668
:1000F000616C7365006E756C6C0025750025752E3E
:10010000002D0025640000000000240027002A00C4
:1001100000000000250028002B0000000000230044
:100120002600290004040404040404040202020258
:1001300002020303030303030102040810204080AA
:10014000010204081020010204081020000000072A
:10015000000201000003040600000000000000008F
:10016000A60757081914EC163C1ED62D11241FBEE5
:10017000CFEFD8E0DEBFCDBF11E0A0E0B1E0E8EA0C
:10018000F5E602C005900D92AA3CB107D9F716E03A
:10019000AAECB1E001C01D92A63AB107E1F711E067
:1001A000CCE6D1E004C02297FE010E948C32C0361A
:1001B000D107C9F70E942C2E0C94D2320C94000067
:1001C000EF92FF920F93DF93CF93CDB7DEB7609797
:1001D0000FB6F894DEBF0FBECDBFA82F002309F4E1
:1001E00061C07E010894E11CF11C88E0F7011192C6
:1001F0008A95E9F729833A834B835C836D837E83F9
:10020000AF83988780E2801BE82FFF27E7FDF095FA
:100210004D815E816F817885181684F01D861E865B
:100220001F86188A882799278E1B9F0B04C07695F6
:100230006795579547958A95D2F728C0202F332781
:1002400027FD3095DB01CA01022E04C0B695A795A3
:10025000979587950A94D2F78D879E87AF87B88B3D
:1002600004C0440F551F661F771FEA95D2F7898196
:100270009A81AB81BC8104C0B695A7959795879567
:100280002A95D2F7482B592B6A2B7B2B49875A8703
:100290006B877C8729853A854B855C856D857E8556
:1002A000AF8598898A2F60960FB6F894DEBF0FBE8F
:1002B000CDBFCF91DF910F91FF90EF900895EF9216
:1002C000FF920F93DF93CF93CDB7DEB760970FB652
:1002D000F894DEBF0FBECDBFA82F002309F461C084
:1002E0007E010894E11CF11C88E0F70111928A95C7
:1002F000E9F729833A834B835C836D837E83AF83E5
:10030000988780E2801BE82FFF27E7FDF095498161
:100310005A816B817C81181684F019861A861B8697
:100320001C86882799278E1B9F0B04C0440F551FDE
:10033000661F771F8A95D2F728C0202F332727FD05
:100340003095DB01CA01022E04C0880F991FAA1F35
:10035000BB1F0A94D2F789879A87AB87BC8704C0F2
:100360007695679557954795EA95D2F78D819E8149
:10037000AF81B88504C0880F991FAA1FBB1F2A959B
:10038000D2F7482B592B6A2B7B2B4D875E876F87C3
:10039000788B29853A854B855C856D857E85AF8513
:1003A00098898A2F60960FB6F894DEBF0FBECDBF36
:1003B000CF91DF910F91FF90EF9008952F923F9290
:1003C0005F926F927F928F929F92AF92BF92CF92E5
:1003D000DF92EF92FF920F931F93CF93DF938C01E5
:1003E0001B01EA016115710519F0FB0191838083FE
:1003F000209749F0CE010297839728F020E030E063
:1004000040E050E0F6C0F801A1908F018A2D90E005
:100410000E949032892BB9F7FDE2AF1631F4F80152
:10042000A1908F015524539407C0FBE2AF1619F435
:10043000F801A1908F015524209719F0C031D10502
:10044000C1F4F0E3AF1679F4F8018081883711F038
:10045000883549F4F801A1800E5F1F4FF2E05F2A52
:10046000C0E1D0E006C0209721F480E3A816E9F4AB
:1004700027C0C830D10531F1C930D10524F4C230CC
:10048000D10531F50CC0CA30D10589F0C031D10594
:10049000F9F4C12CD12CE12CB8E0FB2E28C0C12CE2
:1004A000D12CE12CA0E4FA2E22C0CAE0D0E0FCEC72
:1004B000CF2EFCECDF2EFCECEF2EFCE0FF2E17C065
:1004C000C8E0D0E0C12CD12CE12CE0E1FE2E0FC021
:1004D0009E01442737FD4095542F60E070E080E096
:1004E00090E80E946832C901DA016C017D0120E0C8
:1004F00030E040E050E060E03E01882477FC8094EA
:10050000982C70EDB72EBA0CE9E0EB1570F48A2D3B
:1005100081548A3118F499ECB92E06C08A2D81567F
:100520008A3150F589EAB82EBA0C8B2D90E08C17E1
:100530009D0714F56F3FE1F0C216D306E406F506F9
:10054000B0F0CA01B901A40193010E9435329B01A8
:10055000AC012B0D311D411D511D2130F0E03F0735
:10056000F0E04F07F0E85F0710F461E001C06FEFC3
:10057000F801A1908F01C5CF2114310481F06623C9
:1005800031F001501040F1011183008308C051FE89
:100590001AC002501040F1011183008314C067FF9C
:1005A00012C050FC05C02FEF3FEF4FEF5FE704C0D4
:1005B00020E030E040E050E882E290E09093A50631
:1005C0008093A40616C050FE08C050954095309503
:1005D00021953F4F4F4F5F4F0CC057FF0AC082E23B
:1005E00090E09093A5068093A4062FEF3FEF4FEF86
:1005F0005FE7B901CA01DF91CF911F910F91FF9081
:10060000EF90DF90CF90BF90AF909F908F907F90B2
:100610006F905F903F902F900895FC018827992755
:10062000E89421912032E9F3293010F02E30C8F3FC
:100630002B3241F02D3239F4689404C00E949403A7
:10064000820F911D219120532A30C0F31EF4909502
:1006500081959F4F08950F931F93CF93DF93182F8A
:10066000092FE82FF92FDF010D900020E9F7CD01C8
:100670008E1B9F0B0E944928EC01009721F0612FEF
:10068000702F0E947003CE01DF91CF911F910F91C7
:100690000895FB01DC018D9181341CF08B350CF445
:1006A000805E619161341CF06B350CF4605E861BDA
:1006B000611189F3990B0895FB01DC010D90002075
:1006C000E9F7119701900D920020E1F70895FB01E1
:1006D000DC018D91019080190110D9F3990B0895D7
:1006E000FB01DC0101900D920020E1F70895FB0170
:1006F000DC014150504030F08D910190801919F487
:100700000020B9F7881B990B0895FB01DC014150CB
:10071000504048F001900D920020C9F701C01D9291
:1007200041505040E0F708957AE0979F902D879FC1
:10073000802D910D11240895FC01838187FF24C031
:1007400080919E0690919F068E179F0721F410922C
:100750009F0610929E068091A0069091A1068E178A
:100760009F0721F41092A1061092A0068091A20684
:100770009091A3068E179F0721F41092A306109262
:10078000A206CF010E94E62880E090E008950F9332
:100790001F93CF93DF938C01EB01009731F4611528
:1007A000710519F420E030E038C081E090E06EE09F
:1007B00070E00E94EA06FC019C01009771F180E85C
:1007C0008383209771F0D387C28781E883838091E8
:1007D0009E0690919F06892B21F4F0939F06E0934B
:1007E0009E0601151105C9F011870087838182607B
:1007F00083838091A0069091A106892B71F4F093D8
:10080000A106E093A0068091A2069091A306892BF1
:1008100021F4F093A306E093A206C901DF91CF91E2
:100820001F910F910895CF93DF93EC014B8140FF0F
:100830001AC046FF0AC04F7B4B838E819F81019671
:100840009F838E838A81282F2BC042FF13C0E881AB
:10085000F9818081282F332727FD30952115310517
:1008600029F440624B832FEF3FEF1BC03196F98391
:10087000E88311C0EA85FB85CE0109959C0197FFAD
:100880000AC09B812F5F3F4F11F080E201C080E1E1
:10089000892B8B83E8CF8E819F8101969F838E83E6
:1008A00030E0C901DF91CF910895A0E0B0E0EBE521
:1008B000F4E00C94A9320F8118859E01255F3F4F0B
:1008C000F801838188608383C80169857A85A901DD
:1008D0000E940D05F8012381277F23832096E4E001
:1008E0000C94C5320F931F93CF93DF938C01EB01D0
:1008F0008B8181FF1BC082FF0DC02E813F818C81C7
:100900009D812817390764F4E881F9810193F983FF
:10091000E88306C0E885F985802F0995892B31F495
:100920008E819F8101969F838E8302C00FEF1FEF00
:10093000C801DF91CF911F910F910895A0E0B0E021
:10094000E4EAF4E00C94A132FC014B015A01690184
:10095000D90113968C9180FF1AC07F01C0E0D0E0CE
:1009600010C0C6010E941304BFEF8F3F9B0789F0A0
:10097000F70181937F010F5F1F4F0815190588F359
:100980002196CA15DB0528F400E010E0F6CFC0E0A0
:10099000D0E0CE01CDB7DEB7ECE00C94BD32AEE0D6
:1009A000B0E0E5EDF4E00C94A9320D891E8986E0F3
:1009B0008C831A8309838FEF9FE79E838D839E012B
:1009C000275E3F4FCE0101966F89788DA9010E9465
:1009D0000D052F813885020F131FF80110822E9606
:1009E000E4E00C94C5329C01FB01838180FF11C0BF
:1009F00086FD0FC09FEF2F3F390759F02283806497
:100A00008F7D83838681978101979783868330E0EA
:100A100002C02FEF3FEFC9010895ABE0B0E0E3E182
:100A2000F5E00C949B323C012B015A01FC0117822A
:100A30001682838181FD03C06FEF7FEFC6C19AE00C
:100A4000892E1E010894211C311CF3012381F2011F
:100A500023FD859123FF81912F01882309F4B2C1E1
:100A6000853239F423FD859123FF81912F01853251
:100A700029F490E0B3010E947204E7CF982FFF247D
:100A8000EE249924FFE1FF15D0F09B3269F09C32EF
:100A900028F4903259F0933291F40EC09D3249F00F
:100AA000903369F441E024C052E0F52A84E0F82A4A
:100AB00028C098E0F92A25C0E0E1FE2A22C0F7FC10
:100AC00029C0892F80538A3070F4F6FE05C0989CA7
:100AD000902C1124980E15C0E89CE02C1124E80EEF
:100AE000F0E2FF2A0EC09E3229F4F6FC6BC140E40E
:100AF000F42A07C09C3619F450E8F52A02C098364B
:100B000049F4F20123FD959123FF91912F0199233F
:100B100009F0B8CF892F8554833018F08052833084
:100B200038F444E050E0A40EB51E5FE359830FC0D3
:100B3000933631F0933779F0933509F056C020C0E1
:100B4000F5018081898342E050E0A40EB51E610169
:100B500001E010E012C0F501C080D180F6FC03C0B6
:100B60006FEF7FEF02C0692D70E042E050E0A40E0D
:100B7000B51EC6010E9418078C015FE7F52214C05C
:100B8000F501C080D180F6FC03C06FEF7FEF02C09B
:100B9000692D70E042E050E0A40EB51EC6010E942F
:100BA00006078C0150E8F52AF3FE07C01AC080E260
:100BB00090E0B3010E947204EA948E2D90E0081731
:100BC0001907A8F30EC0F601F7FC8591F7FE819195
:100BD0006F0190E0B3010E947204E110EA940150A9
:100BE00010400115110579F7EAC0943611F09936D5
:100BF00069F5F7FE08C0F5012081318142815381FA
:100C000084E090E00AC0F501808191819C01442735
:100C100037FD4095542F82E090E0A80EB91E9FE664
:100C2000F92257FF09C050954095309521953F4FC7
:100C30004F4F5F4FE0E8FE2ACA01B901A1012AE047
:100C400030E00E942307D82ED21840C0953729F4EF
:100C50001F2D1F7E2AE030E01DC01F2D197F9F36FB
:100C600061F0903720F4983509F0ACC00FC0903790
:100C700039F0983709F0A6C004C028E030E00AC077
:100C8000106114FD146020E130E004C014FD166012
:100C900020E132E017FF08C0F50160817181828197
:100CA000938144E050E008C0F50180819181BC014E
:100CB00080E090E042E050E0A40EB51EA1010E9449
:100CC0002307D82ED2188FE7F82EF122F6FE0BC09C
:100CD0005EEFF522D91438F4F4FE07C0F2FC05C02B
:100CE0008FEEF82202C01D2D01C0192DF4FE0DC09B
:100CF000FE01ED0DF11D8081803319F499EEF9228A
:100D000008C01F5FF2FE05C003C08F2D867809F072
:100D10001F5F0F2DF3FC14C0F0FE0FC01E1510F066
:100D20009D2C0BC09D2C9E0C911A1E2D06C080E29E
:100D300090E0B3010E9472041F5F1E15C0F304C04F
:100D40001E1510F4E11A01C0EE2404FF0FC080E369
:100D500090E0B3010E94720402FF1DC001FD03C0B8
:100D600088E790E00EC088E590E00BC0802F867881
:100D700091F001FF02C08BE201C080E2F7FC8DE23E
:100D800090E0B3010E94720406C080E390E0B301DA
:100D90000E9472049A94D914C0F3DA94F101ED0D13
:100DA000F11D808190E0B3010E947204DD20A9F75B
:100DB00006C080E290E0B3010E947204EA94EE2043
:100DC000C1F743CEF30166817781CB012B96E2E137
:100DD0000C94B7320F931F93CF93DF93689F8001DA
:100DE000699F100D789F100D1124C8010E94492899
:100DF000EC01009729F060E070E0A8010E94110763
:100E0000CE01DF91CF911F910F910895FC010590C4
:100E1000615070400110D8F7809590958E0F9F1FFC
:100E20000895DC0101C06D9341505040E0F70895F2
:100E3000FC016150704001900110D8F780959095A9
:100E40008E0F9F1F0895FA01AA27283051F12031F3
:100E500081F1E8946F936E7F6E5F7F4F8F4F9F4F4E
:100E6000AF4FB1E03ED0B4E03CD0670F781F891F90
:100E70009A1FA11D680F791F8A1F911DA11D6A0F5E
:100E8000711D811D911DA11D20D009F468943F9111
:100E90002AE0269F11243019305D3193DEF6CF0110
:100EA0000895462F4770405D4193B3E00FD0C9F7D6
:100EB000F6CF462F4F70405D4A3318F0495D31FD43
:100EC0004052419302D0A9F7EACFB4E0A695979596
:100ED000879577956795BA95C9F70097610571056C
:100EE00008959B01AC010A2E0694579547953795B6
:100EF0002795BA95C9F7620F731F841F951FA01D10
:100F00000895EF92FF920F931F937C0108E715E07D
:100F1000C80160E071E00E94A12EF701668177812F
:100F2000C8010E94A12EC8010E94652E0AEC11E0A2
:100F3000C8010E94C51CF70166817781C8010E9423
:100F4000A12E1F910F91FF90EF900895CF92EF92F5
:100F50000F938AEC91E068E049E024E005E056E078
:100F6000E52E37E0C32E0E94831D0F91EF90CF90A6
:100F700008950F931F9306EE13E0C8010E941A28EC
:100F8000C8010E9420251F910F9108958AE061E019
:100F90000E94882B8BE061E00E94882B89E061E051
:100FA0000E94882B8AE061E00E94C72B8BE061E001
:100FB0000E94C72B89E061E00E94C72B8CE061E0B2
:100FC0000E94882B88E061E00E94882B87E061E026
:100FD0000E94882B8CE061E00E94C72B88E061E0D2
:100FE0000E94C72B87E060E00E94C72B08958AEC1F
:100FF00091E060E142E020E00E94CD1CEFEDF1E0E5
:101000001192119281E0E53FF807D1F785EF91E069
:1010100063E171E040E250E00E94850389E891E0DD
:101020009093E0018093DF010E94810708950F9360
:101030001F9308E715E0C80140E855E260E070E062
:101040000E94A52CC8010E94652E0E94C6070E941E
:10105000F70786EE93E06FED71E00E94BC1D1F91D3
:101060000F910895449A459AE9EBF0E080818E7FD4
:10107000808380818D7F808388E48093B80084E4BE
:101080008093BC000895FC01809116029091180293
:10109000981B90931702882319F410921702089551
:1010A000815080931602E90FF11D82810895089501
:1010B000EF92FF920F931F930E94562A7B018C019F
:1010C00084E98093BC001BC021153105E1F00E942A
:1010D000562A6E197F09800B910B209119023091CD
:1010E0001A0240E050E0621773078407950738F052
:1010F0001092BC0084E48093BC0081E009C0209180
:10110000190230911A028091BC0084FDDDCF80E08D
:101110001F910F91FF90EF900895CF92DF92EF9281
:10112000FF921F93162F0E94562A6B017C011123F8
:1011300011F084EC01C084E88093BC001BC0211531
:101140003105E1F00E94562A6C197D098E099F092C
:101150002091190230911A0240E050E062177307A3
:101160008407950738F01092BC0084E48093BC009B
:1011700091E019C02091190230911A028091BC00AF
:1011800087FFDDCF8091B900887F883349F4909143
:10119000B900987F1092BC0084E48093BC0003C027
:1011A0009091B900987F892F1F91FF90EF90DF9069
:1011B000CF900895EF92FF920F931F93CF93DF93F9
:1011C000EC016093BB000E94562A7B018C0184E8ED
:1011D0008093BC001BC021153105E1F00E94562A06
:1011E0006E197F09800B910B2091190230911A0220
:1011F00040E050E0621773078407950738F01092BB
:10120000BC0084E48093BC0011E020C0209119024E
:1012100030911A028091BC0087FFDDCF8091B90028
:10122000887F883211F410E011C01091B900187F46
:101230008091B900887F803321F4CE010E94580844
:1012400005C01092BC0084E48093BC00812FDF9124
:10125000CF911F910F91FF90EF900895EF92FF9221
:101260000F931F93CF93DF93EC016093BB000E9419
:10127000562A7B018C0184E88093BC001BC0211599
:101280003105E1F00E94562A6E197F09800B910BFF
:101290002091190230911A0240E050E06217730762
:1012A0008407950738F01092BC0084E48093BC005A
:1012B00011E01DC02091190230911A028091BC00EA
:1012C00087FFDDCF8091B900887F883179F08091E8
:1012D000B900887F803499F409C08091B900887F73
:1012E0008834B1F4CE010E94580801C010E0812F6B
:1012F000DF91CF911F910F91FF90EF900895109182
:10130000B900187F8091B900887F803231F7EACF29
:101310001092BC0084E48093BC00E9CFEF92FF926E
:101320000F931F930E94562A7B018C0184EA8093BD
:10133000BC001BC021153105E1F00E94562A6E1930
:101340007F09800B910B2091190230911A0240E025
:1013500050E0621773078407950738F01092BC00BD
:1013600084E48093BC0091E021C020911902309167
:101370001A028091BC0087FFDDCF8091B900887F81
:10138000883099F08091B900887F8031A9F40DC030
:101390009091B900987F1092BC0084E48093BC00C7
:1013A00005C09091B900987F01C090E0892F1F91EE
:1013B0000F91FF90EF9008958091B900887F883356
:1013C00081F7E6CFEF92FF920F931F93CF93DF93B6
:1013D000EC01162F042FE22E109216021092170223
:1013E000222311F4EE24E394EA94E982E394188230
:1013F000CE010E948E098883882309F061C0110FF5
:10140000CE01612F0E942E098883882329F0813024
:1014100009F056C082E054C0CE01602F0E94DA0865
:101420008883882329F0813009F04AC083E048C0CE
:10143000CE010E948E098883882329F0813009F02B
:101440003FC084E03DC01F5FCE01612F0E942E0986
:101450008883882319F48E01FF2425C0813081F50B
:1014600085E02EC08981F81651F4CE0160E00E941B
:101470008D088883813019F1883551F021C0CE0163
:1014800061E00E948D0888838130C9F08035C1F405
:101490008091BB00F8018283F394F0921602F092DF
:1014A00018020F5F1F4FFE14E8F2CE010E94580889
:1014B0008883882329F0813019F487E001C086E011
:1014C000DF91CF911F910F91FF90EF900895FF92C0
:1014D0000F931F93CF93DF93EC01162F042FF22E5F
:1014E00018820E948E098883882341F5110FCE014E
:1014F000612F0E942E098883882321F08130F1F426
:1015000082E01CC0CE01602F0E94DA088883882305
:1015100039F4CE016F2D0E94DA088883882319F0F0
:10152000813061F40AC0CE010E9458088883882364
:1015300029F0813019F487E001C083E0DF91CF9179
:101540001F910F91FF9008950F931F93CF93DF93F7
:10155000EC01162F042F18820E948E09888388239D
:1015600001F5110FCE01612F0E942E098883882377
:1015700021F08130B1F482E014C0CE01602F0E94CE
:10158000DA088883882321F0813059F483E009C088
:10159000CE010E9458088883882319F0813009F40D
:1015A00087E0DF91CF911F910F910895FB01068095
:1015B000F781E02D80E004C08F5F0280F381E02D91
:1015C0003097D1F70895FB010680F781E02D04C024
:1015D00041500280F381E02D309711F04423C1F790
:1015E000CF010895CF93DF93EB01DA01EE81FF8104
:1015F0004115510591F0309719F45F834E830DC06A
:10160000CF010280F381E02D3097D1F7FC01B38345
:10161000A28315969C938E931497DF91CF91089592
:101620000F931F93CF93DF93FB018A01C681D7816C
:1016300003C00A80DB81C02D209739F08881998111
:10164000B8010E944903892BA1F7CE01DF91CF9108
:101650001F910F910895EF92FF920F931F93CF93D5
:10166000DF937B018A01E9012115310511F18881A0
:101670009981009711F00E94E628C8010E942B036F
:1016800088839983D7011696ED91FC91179730972F
:1016900029F41796DC93CE9316970BC0CF010280E6
:1016A000F381E02D3097D1F7FC01D383C2839D8372
:1016B0008C83DF91CF911F910F91FF90EF90089550
:1016C000EF92FF920F931F93CF93DF938C01EB0167
:1016D00023C0FA80EB80888587FD08C06E817F81FA
:1016E0006115710519F0C8010E94600B888585306D
:1016F00031F489859A85009711F00E94E628888147
:101700009981009711F00E94E628CE010E94E628F8
:101710008F2D9E2D9C01E9012097D9F6DF91CF9165
:101720001F910F91FF90EF9008950F931F93CF9308
:10173000DF938B01EA0182E290E0BA010E94720419
:101740008F5F9F4F09F464C00115110509F050C067
:1017500054C0803240F0823231F08C3521F099272C
:1017600087FD909534C08CE590E0BE010E94720424
:101770008F5F9F4F09F44CC0F80180818C30C9F015
:101780008D303CF4893051F18A30B1F0883071F5F8
:101790000DC0823241F08C3519F08D3039F515C00D
:1017A0008CE590E01DC082E290E008C082E690E007
:1017B0000EC086E690E014C08EE690E0BE010E9466
:1017C00072048F5F9F4F91F423C082E790E0BE01C7
:1017D0000E9472048F5F9F4F49F41AC084E790E023
:1017E000BE010E9472048F5F9F4F91F00F5F1F4FE9
:1017F000F8018081882309F0ACCF82E290E0BE013D
:101800000E9472048F5F9F4F19F020E030E002C009
:101810002FEF3FEFC901DF91CF911F910F910895F5
:10182000CF93DF93EB016115710559F0CE010E9452
:1018300013042FEF8F3F920721F081329105B4F30B
:1018400006C02FEF3FEFC901DF91CF910895BE0190
:101850000E94F3048F5F9F4FA1F320E030E0F3CFAD
:101860006F927F928F929F92AF92BF92CF92DF92B0
:10187000EF92FF920F931F93CF93DF93FB014A01E7
:101880006115710509F4A5C0A184B284C384D48410
:10189000C601B50120E030E040E050E00E941C2F7E
:1018A0008823C4F400D000D0ADB7BEB712969C9286
:1018B0008E92119781E091E014969C938E931397EA
:1018C0000E945504D7FAD094D7F8D0940F900F9077
:1018D0000F900F90C601B5010E948D2F7B018C01E6
:1018E000EDB7FEB738970FB6F894FEBF0FBEEDBF49
:1018F0003196ADB7BEB712969C928E9211978DEF2E
:1019000090E093838283E482F582068317830E94AA
:101910005504C801B7010E94B92F9B01AC01C60153
:10192000B5010E94B72E2CEA35EC47EA56E30E9437
:10193000B82E7B018C01C5E0D0E0EDB7FEB738963C
:101940000FB6F894FEBF0FBEEDBF8AEF682E80E0A1
:10195000782EC801B70120E030E040E251E40E9457
:101960006B305B016C010E948D2F7B0100D000D099
:1019700000D0EDB7FEB73196ADB7BEB712969C92C8
:101980008E92119773826282758364830E945504DC
:1019900000E010E0C801B7010E94B92F9B01AC0123
:1019A000C601B5010E94B72E7B018C01EDB7FEB7D1
:1019B00036960FB6F894FEBF0FBEEDBF20E030E0C4
:1019C00040E050E00E941C2F882319F0219709F075
:1019D000C0CF80E090E0DF91CF911F910F91FF90F9
:1019E000EF90DF90CF90BF90AF909F908F907F90BF
:1019F0006F900895CF93DF93DB016115710519F4A2
:101A000020E030E01FC000D000D000D0EDB7FEB71E
:101A10003196CDB7DEB75A83498383E091E0938353
:101A2000828319968D919C911A97958384830E9445
:101A300055049C018DB79EB706960FB6F8949EBFCD
:101A40000FBE8DBFC901DF91CF910895FB016115D4
:101A5000710509F44BC020852330B1F124303CF4EA
:101A6000213049F1223064F4222399F03FC025301F
:101A700089F1253064F1263091F12730B9F532C073
:101A800000D000D0EDB7FEB75283418385EF90E0E0
:101A900008C000D000D0EDB7FEB7528341838FEE6F
:101AA00090E0948383830E9455049C010F900F90D3
:101AB0000F900F901DC000D000D0EDB7FEB752833D
:101AC00041838AEE90E0EDCF0E94FA0C0DC00E9497
:101AD000300C0AC0618572850E94950B05C00E947A
:101AE000C80D02C00E947A0D9C0102C020E030E0C7
:101AF000C9010895EF92FF920F931F93CF93DF9345
:101B00007C01FB018A0161157105C1F1C681D78194
:101B10008BE790E020C068817981C701A8010E940D
:101B2000950B8F5F9F4F39F18AE390E0B8010E94D7
:101B300072048F5F9F4FF9F0C701BE01A8010E9498
:101B4000260D8F5F9F4FB9F00A80DB81C02D209753
:101B500041F08CE290E0B8010E9472048F5F9F4FC9
:101B600051F02097C1F68DE790E0B8010E94720411
:101B70008F5F9F4F19F42FEF3FEF02C020E030E05E
:101B8000C901DF91CF911F910F91FF90EF900895C0
:101B9000EF92FF920F931F93CF93DF937C01FB0192
:101BA0008A016115710539F1C681D7818BE590E015
:101BB0000FC0C701BE01A8010E94260D8F5F9F4F75
:101BC000B9F00A80DB81C02D209741F08CE290E0D3
:101BD000B8010E9472048F5F9F4F51F0209749F720
:101BE0008DE590E0B8010E9472048F5F9F4F19F459
:101BF0002FEF3FEF02C020E030E0C901DF91CF912D
:101C00001F910F91FF90EF900895EF92FF920F9325
:101C10001F93CF93DF938C017B010E940C13EC0187
:101C2000009719F420E030E009C0C801B701AE0107
:101C30000E94260DCE010E94F5129C01C901DF9180
:101C4000CF911F910F91FF90EF900895EF92FF9227
:101C50000F931F93CF93DF937B018A01CA010E94E8
:101C60001304829709F04FC085E0F70180870E9436
:101C7000C713EC01009709F446C0C8010E94130481
:101C8000FFEF8F3F9F0709F041C03AC08C359105A7
:101C900069F5C8010E9413042FEF8F3F920781F16D
:101CA00086369105E1F0873691054CF48C35910527
:101CB00081F08236910589F08297D9F40CC0823781
:101CC000910589F08437910581F08E36910589F46C
:101CD00008C08CE50BC082E209C088E007C08CE038
:101CE00005C08AE003C08DE001C089E0BE010E940A
:101CF0006113C8010E941304EFEF8F3F9E0731F478
:101D0000CE010E947F132FEF3FEF0FC0823291056B
:101D100021F0803291050CF0B9CFCE010E948413DE
:101D2000F7019287818720E030E0C901DF91CF91F0
:101D30001F910F91FF90EF9008952F923F924F9235
:101D40005F926F92AF92BF92CF92DF92EF92FF922B
:101D50000F931F93DF93CF93CDB7DEB728970FB6BE
:101D6000F894DEBF0FBECDBF7A8369831A01CA0122
:101D70000E9413042C012FEF8F3F920771F08D32D8
:101D8000910519F0AA24A3940DC0C1010E94130467
:101D90002C014FEF8F3F940719F42FEF3FEF16C13F
:101DA000AA24AA94C201C0970A9718F000E010E094
:101DB00018C000E010E0C80173E0880F991F7A9501
:101DC000E1F7000F111F800F911F82010053104097
:101DD000080F191FC1010E9413042C01C0970A9714
:101DE00050F35EE245165104D1F085E648165104E1
:101DF000B1F095E44916510491F08A2D992787FD99
:101E00009095FC010E9FC0010F9F900D1E9F900D9D
:101E10001124E981FA819287818783E0D0C0B801DB
:101E2000882777FD8095982F0E94BB2F7B018C011E
:101E3000FEE24F16510419F0CC24DD242DC0C1015F
:101E40000E9413042C01CC24DD24C801B70120E03A
:101E500030E040E251E40E946B307B018C0120EDC8
:101E60003FEF420E531EB201882777FD8095982FD1
:101E70000E94BB2F9B01AC01C801B7010E94B82E84
:101E80007B018C010894C108D108C1010E94130490
:101E90002C01C0970A97C8F235E64316510449F061
:101EA00045E44416510429F018861F826624639481
:101EB00037C0C1010E9413042C018B32910529F413
:101EC000C1010E9413042C0104C08DE24816510484
:101ED00019F06624639406C0C1010E9413042C010A
:101EE00066246A9418861F8215C08F81988553E0F6
:101EF000880F991F5A95E1F7EF81F885EE0FFF1FC4
:101F0000E80FF91FE20FF31FF887EF83C1010E946A
:101F100013042C019201205330402A30310528F35C
:101F20006A2D772767FD7095872F972F0E94BB2F0B
:101F3000A80197010E946B306B837C838D839E8305
:101F4000B601882777FD8095982F0E94BB2F5B01F3
:101F50006C012F813885B901882777FD8095982FEE
:101F60000E94BB2F7B018C01662D772767FD709542
:101F7000872F972F0E94BB2F9B01AC01C801B7018F
:101F80000E946B309B01AC01C601B5010E94B82EC6
:101F90009B01AC0160E070E080E291E40E94CE30F1
:101FA0009B01AC016B817C818D819E810E946B3095
:101FB000E981FA81618772878387948784E08087CB
:101FC000C201B1010E94F30420E030E0C90128966B
:101FD0000FB6F894DEBF0FBECDBFCF91DF911F913A
:101FE0000F91FF90EF90DF90CF90BF90AF906F90E8
:101FF0005F904F903F902F9008958DE090E00E9469
:102000004928FC01009729F08DE0DF011D928A9597
:10201000E9F7CF0108950E94FD0FFC01009711F030
:1020200087E08087CF0108950E94FD0FFC01009793
:1020300011F086E08087CF0108950F931F93CF930F
:10204000DF938B010E94FD0FEC01009739F085E0D2
:102050008887C8010E942B0389879A87CE01DF9168
:10206000CF911F910F910895CF92DF92EF92FF923F
:102070000F931F938C017B016A01B9010E941D100F
:102080009C01C801B701A6010E942B0B1F910F9163
:10209000FF90EF90DF90CF900895EF92FF920F9313
:1020A0001F937A018B010E94FD0FFC01009731F014
:1020B00084E08087E186F28603871487CF011F9131
:1020C0000F91FF90EF900895AF92BF92CF92DF9261
:1020D000EF92FF920F931F937C016B015A01B9019C
:1020E000A8010E944D109C01C701B601A5010E94E4
:1020F0002B0B1F910F91FF90EF90DF90CF90BF902F
:10210000AF900895CF93DF93EB010E94FD0FFC0188
:10211000009721F083E08087D287C187CF01DF91CC
:10212000CF910895CF92DF92EF92FF920F931F937A
:102130008C017B016A01B9010E9482109C01C801D7
:10214000B701A6010E942B0B1F910F91FF90EF90FA
:10215000DF90CF9008956F927F928F929F92BF925F
:10216000CF92DF92EF92FF920F931F93CF93DF9363
:102170007C014B018A013901CA010E9413048B378B
:10218000910509F05DC087E0F4018087C701B801BF
:102190000E94100CC8010E9413048D37910509F4A8
:1021A00052C0B8010E94F304BB24BA94C7010E9434
:1021B000FD0FEC01009709F443C0BB2021F0F401AE
:1021C0009783868305C0F60193838283DD82CC8268
:1021D000C701B8010E94100CC701BE01A8010E94EE
:1021E000260E8F5F9F4F61F1C701B8010E94100C4E
:1021F00089859A85998388831A861986C8010E94E1
:102200001304CA97E9F4C701B8010E94100CC70172
:10221000BE01A80193010E9434118F5F9F4F81F08E
:10222000C701B8010E94100CC8010E941304BB240E
:102230006E018C32910509F4B9CF8D37910519F0F3
:102240002FEF3FEF02C020E030E0C901DF91CF91D6
:102250001F910F91FF90EF90DF90CF90BF909F90D4
:102260008F907F906F9008958F929F92AF92BF92C0
:10227000CF92DF92EF92FF920F931F93DF93CF9352
:10228000CDB7DEB729970FB6F894DEBF0FBECDBF2E
:102290006C015B017A0149014115510509F4ADC09A
:1022A000BA010E94100C8F5F9F4F09F4A6C0C701AE
:1022B0000E9413048C018FEF0F3F180709F49DC093
:1022C000C801B7010E94F3048F5F9F4F09F495C0C6
:1022D0000232110531F4C601B501A7010E94260E94
:1022E00020C00D32110521F0C801C0970A9730F4C3
:1022F000C601B501A7010E949D0E13C00B35110543
:1023000039F4C601B501A70194010E94131209C056
:102310000B37110541F4C601B501A70194010E94D4
:10232000AB109C016CC00E36110501F519821A82A2
:102330001B821C828E010F5F1F4FC80161E070E09D
:1023400044E050E097010E949E04049709F055C0B4
:10235000C80162E271E044E050E00E947703009718
:1023600009F04BC082E0F501808744C006361105B4
:10237000F9F48E010B5F1F4F85E0F80111928A95E9
:10238000E9F7C80161E070E045E050E097010E9484
:102390009E04059791F5C80167E271E045E050E0C1
:1023A0000E947703009749F5F5011086118622C037
:1023B0000437110511F519821A821B821C828E01C5
:1023C0000F5F1F4FC80161E070E044E050E09701EB
:1023D0000E949E04049789F4C8016DE271E044E014
:1023E00050E00E947703009741F481E0F501808777
:1023F0008FEF818720E030E002C02FEF3FEFC9016F
:1024000029960FB6F894DEBF0FBECDBFCF91DF91F6
:102410001F910F91FF90EF90DF90CF90BF90AF9002
:102420009F908F9008956F927F928F929F92BF920C
:10243000CF92DF92EF92FF920F931F93CF93DF9390
:102440006C014B01EA013901CA010E9413048B356A
:10245000910509F03FC086E0F4018087C601BE0106
:102460000E94100CCE010E9413048D359105A9F134
:10247000BE010E94F304BB24BA94C6010E94FD0F62
:102480008C01009739F1BB2021F0F40197838683FA
:1024900006C0F70193838283FC01F582E482C601C2
:1024A000BE010E94100CC601B801AE0193010E944A
:1024B0003411892B79F4C601BE010E94100CCE01A3
:1024C0000E941304BB2478018C329105B1F28D3542
:1024D000910519F02FEF3FEF02C020E030E0C90175
:1024E000DF91CF911F910F91FF90EF90DF90CF90F0
:1024F000BF909F908F907F906F900895CF92DF92C2
:10250000EF92FF920F931F93CF93DF937C018B0188
:102510006A0161157105B1F00E94FD0FEC01009791
:1025200099F0C701B8010E94100CC701BE01A801B3
:1025300096010E9434118F5F9F4F31F4C701BE0195
:102540000E94600BC0E0D0E0CE01DF91CF911F91DF
:102550000F91FF90EF90DF90CF900895EF92FF9250
:102560000F931F937C01CB010E943A138C01C7018A
:10257000B80140E050E00E947E12F82EE92EC8011A
:102580000E9427138F2D9E2D1F910F91FF90EF908A
:102590000895FC01A485B58512962D913C91139761
:1025A000ED91FC911197E20FF31F8081882319F4BC
:1025B000EFEFFFEF0AC02F5F3F4F13963C932E9330
:1025C0001297E82FFF27E7FDF095CF010895FB0153
:1025D000648575850E946113882319F420E030E03A
:1025E00002C02FEF3FEFC90108950F931F93CF93C0
:1025F000DF93EC018C859D850E9484138C010097EC
:1026000011F01D861C86CE010E949C03C801DF913B
:10261000CF911F910F910895CF93DF9387EE92E1B1
:1026200060E070E00E94C703EC01009761F00E9437
:10263000C713009731F4CE010E949C03C0E0D0E0A4
:1026400002C09D878C87CE01DF91CF910895CF93F3
:10265000DF93EC01009759F08C859D85009711F070
:102660000E94E6281D861C86CE010E949C03DF91F5
:10267000CF9108950F931F93CF93DF938C0180E048
:1026800090E069EC72E10E94C703EC01009799F0B9
:1026900084E090E00E944928FC01009739F0118302
:1026A0000083138212829D878C8705C0CE010E9411
:1026B0009C03C0E0D0E0CE01DF91CF911F910F913C
:1026C0000895482FDB0114962D913C911597129691
:1026D0008D919C9113972817390778F4ED91FC910F
:1026E0001197E20FF31F408314968D919C911597DB
:1026F000019615969C938E93149780E00895009709
:1027000011F00E94E62808950F931F93CF93DF9353
:102710008C01DC0114962D913C9115972115310502
:1027200041F0ED91FC91E20FF31F319780818823F6
:10273000B1F0F801828193812817390780F4019064
:10274000F081E02DE20FF31F1082D80114968D91D5
:102750009C911597019615969C938E931497F8016A
:10276000848195810E944928EC01009751F06AE923
:1027700075E00E947003D8011D921C92C8010E944E
:10278000E628CE01DF91CF911F910F910895CF934D
:10279000DF9386E090E00E944928DC010097A9F0D1
:1027A000EAE9F5E01196FC93EE9380E091E0EF0109
:1027B0009C01199221503040E1F713969C938E931F
:1027C000129715961C921E921497CD01DF91CF910E
:1027D000089520915F0230E080915E02281B31094C
:1027E000C901089540915E0280915F02481718F078
:1027F0002FEF3FEF0AC0E42FF0E0E25CFD4F808155
:10280000282F30E04F5F40935E02C9010895E091A8
:102810005E0280915F02E81718F0EFEFFFEF06C04D
:10282000F0E0E25CFD4F8081E82FF0E0CF010895F9
:102830000895109286021092850288EE93E0A0E03F
:10284000B0E08093870290938802A0938902B093AE
:102850008A0286EA91E0909384028093830208952D
:10286000CF92DF92EF92FF920F931F93CF93DF935C
:102870007C016B018A01809182028823A1F0C0E073
:10288000D0E00DC0D701ED91FC91D601AC0FBD1F7A
:102890000190F081E02DC7016C9109952196C01738
:1028A000D10780F304C0CB01642F0E949114C801AA
:1028B000DF91CF911F910F91FF90EF90DF90CF901C
:1028C0000895DF93CF930F92CDB7DEB7FC016983F4
:1028D000809182028823C9F080918102803238F091
:1028E00081E090E09383828320E030E015C0809106
:1028F0008002E82FF0E0E05AFD4F998190838F5FCE
:10290000809380028093810205C0CE01019661E030
:102910000E94911421E030E0C9010F90CF91DF9126
:102920000895482F613210F081E0089580918F0260
:10293000843011F082E008956093DA02A9EBB2E0EE
:10294000842F9C01F90102C081918D938E2F841BED
:102950008617D0F380E008951F920F920FB60F9262
:1029600011242F933F934F935F936F937F938F9394
:102970009F93AF93BF93EF93FF938091B90090E043
:10298000887F90708036910509F4F2C081369105F8
:10299000CCF58832910509F47BC089329105B4F4F5
:1029A0008031910509F46FC0813191053CF40097A5
:1029B00009F447C1089709F04FC165C088319105F6
:1029C00009F466C0809709F047C182C08034910540
:1029D00009F4A4C08134910544F48033910509F4CD
:1029E00082C0C89709F038C189C08035910509F4C3
:1029F00089C08835910509F496C08834910509F09D
:102A00002BC1AEC08839910509F413C189399105EC
:102A1000ECF48837910509F4ABC0893791054CF483
:102A20008836910509F4A4C08037910509F014C1D6
:102A30009FC08838910509F4FCC08039910509F4DC
:102A40009DC08038910509F007C198C0803B910571
:102A500009F4C6C0813B91054CF4803A910509F414
:102A60009FC0883A910509F0F7C0BAC0803C910533
:102A700009F4E3C0883C910509F4DFC0883B910567
:102A800009F0EAC0C2C0809190028093BB00CFC021
:102A90009091B7028091B802981768F49091B702AC
:102AA000E92FF0E0E956FD4F80818093BB009F5FE6
:102AB0009093B702BCC080919102882309F44BC067
:102AC00085ED8093BC008091BC0084FDFCCFC2C02A
:102AD00080E28093FC0285ED8093BC008091BC0075
:102AE00084FDFCCFB7C080E38093FC0285ED80932A
:102AF000BC008091BC0084FDFCCFACC088E3809317
:102B0000FC029BC08091B7029091BB00E82FF0E0DF
:102B1000E956FD4F90838F5F8093B7029091B70283
:102B20008091B80282C08091B7029091BB00E82FDB
:102B3000F0E0E956FD4F90838F5F8093B70280915C
:102B40009102882341F085ED8093BC008091BC0008
:102B500084FDFCCF7FC081E08093920284EA6EC046
:102B600085ED8093BC008091BC0084FDFCCF72C0D9
:102B700083E080938F021092FB0259C08091FB0288
:102B8000803208F056C08091FB029091BB00E82F84
:102B9000F0E0E552FD4F90838F5F8093FB0247C0CA
:102BA0008091FB02803230F4E091FB02F0E0E552CC
:102BB000FD4F108285ED8093BC008091BC0084FDA8
:102BC000FCCF10928F026091FB02E0919502F09190
:102BD00096028BED92E070E009951092FB022DC0F9
:102BE00084E080938F021092D9021092DA02E09171
:102BF0009302F091940209958091DA02882329F4D6
:102C000081E08093DA021092B9029091D902E92F03
:102C1000F0E0E754FD4F80818093BB009F5F90936D
:102C2000D9029091D9028091DA02981710F485ECBC
:102C300001C085E88093BC000FC085EC8093BC0088
:102C400009C01092FC0285ED8093BC008091BC000D
:102C500084FDFCCF10928F02FF91EF91BF91AF9155
:102C60009F918F917F916F915F914F913F912F91A4
:102C70000F900FBE0F901F901895362F242F8BE1C9
:102C800092E06DE1432F0E94670A0895EF92FF9250
:102C90000F931F93CF93DF93162F7A01022F8BE1AF
:102CA00092E06DE1412F0E94A40A8BE192E06DE178
:102CB000412F202F0E94E209C0E0D0E010E009C0BF
:102CC0008BE192E00E944308F701EC0FFD1F808327
:102CD0002196C017D107A4F3DF91CF911F910F91D7
:102CE000FF90EF9008950F931F93DF93CF930F9270
:102CF000CDB7DEB78C016AE2AE014F5F5F4F21E0D6
:102D00000E94461649814D7FC8016AE20E943D1625
:102D10000F90CF91DF911F910F9108950F931F9303
:102D2000DF93CF930F92CDB7DEB78C016AE2AE018D
:102D30004F5F5F4F21E00E94461649814160C80104
:102D40006AE20E943D160F90CF91DF911F910F9183
:102D500008950F931F93DF93CF930F92CDB7DEB7F4
:102D60008C016AE2AE014F5F5F4F21E00E94461680
:102D700049814E7FC8016AE20E943D160F90CF91B3
:102D8000DF911F910F9108950F931F93DF93CF93BE
:102D90000F92CDB7DEB78C018BE192E00E94320832
:102DA000C8010E94A916C8016EE040E00E943D16CD
:102DB000C8010E947316C8010E948E16C8016DE0FA
:102DC000AE014F5F5F4F21E00E9446160F90CF91FA
:102DD000DF911F910F9108958DEF92E00E94C4162C
:102DE0000895FC018FEF9FEF91838083938382830B
:102DF0001092FE021092FF02109200031092010343
:102E00001092020310920303109204031092050320
:102E10008AE090E0978386838CE390E090939B0117
:102E200080939A0181E080878EE591E09583848389
:102E30000895FC01758364830895FC01778366839C
:102E4000089520E08091FE029091FF02892B9091DD
:102E50000003892B90910103892B90910203892B08
:102E600090910303892B90910403892B9091050382
:102E7000892B09F021E0822F08951092FE02109212
:102E8000FF021092000310920103109202031092AD
:102E90000303109204031092050308952091FE028B
:102EA0003091FF02409100035091010360910203B1
:102EB000709103038091040390910503089580911C
:102EC000060390910703089580910A0390910B03E4
:102ED00008952F923F924F925F926F927F928F92BE
:102EE0009F92AF92BF92CF92DF92EF92FF920F9399
:102EF0001F93DF93CF93CDB7DEB762970FB6F894E9
:102F0000DEBF0FBECDBF3C0180910C0390910D033D
:102F10006FE170E00E9454324B017B0100E010E051
:102F200020919A0130919B01442737FD4095542F01
:102F3000C801B7010E9435320E94B92F2AE037ED4F
:102F400043E25CE30E946B300E948D2FA801970141
:102F5000220F331F441F551F2E0D3F1D401F511FB1
:102F600059016A01A61AB70AC80AD90AAD82BE82F7
:102F7000CF82D8865B016C01A20EB31EC41ED51E83
:102F8000A982BA82CB82DC82AA24BB24650121E01B
:102F900030E03A87298717012801261A370A480A9C
:102FA000590AA8019701260F371F481F591F2F875D
:102FB000388B498B5A8B7AC0E985FA85EE0FFF1F53
:102FC000E45FFC4F808191819C0140E050E022163B
:102FD00033064406550658F58F859889A989BA891C
:102FE000281739074A075B0710F5E985FA85EE0FC0
:102FF000FF1FE25FFC4F0190F081E02D7F0100E0B8
:1030000010E0EB86FC860D871E878D819E81AF8147
:10301000B8858E159F05A007B10748F489819A816C
:10302000AB81BC81E816F9060A071B0778F1ED8031
:10303000FE800F811885E216F3060407150758F580
:1030400089819A81AB81BC81281739074A075B07C0
:1030500010F5E985FA85EE0FFF1FE25FFC4F8081D6
:103060009181A0E0B0E0281639064A065B0698F484
:10307000EF84F88809891A898E159F05A007B10782
:1030800050F40894A11CB11CC11CD11CAA0CBB1C7F
:10309000CC1CDD1C05C07A866986AA24BB24650188
:1030A00009851A850E5F1F4F1A87098729853A857A
:1030B0002615370508F480CFA6019501569547954A
:1030C0003795279580E36816710440F12115310585
:1030D0004105510511F480E028C02093FE02309391
:1030E000FF024093000350930103109202031092D9
:1030F0000303109204031092050376946794709270
:10310000070360920603909209038092080381E00E
:1031100090E090930B0380930A0306C080E0211592
:1031200031054105510509F081E062960FB6F8942A
:10313000DEBF0FBECDBFCF91DF911F910F91FF90EA
:10314000EF90DF90CF90BF90AF909F908F907F9047
:103150006F905F904F903F902F9008959F92AF9205
:10316000BF92CF92DF92EF92FF920F931F93CF9374
:10317000DF936C0120E0A0E0B0E000E010E0FF246D
:10318000EE249924AA24BB24C1E0D0E075C0FE013E
:10319000EE0FFF1FE45FFC4F0190F081E02D86E011
:1031A000E53AF80760F088E0EC3FF80768F43A2F5A
:1031B0004B2F502F612F7F2D8E2D992D3FC082E0F8
:1031C000ED3BF80708F44AC0E451F54008F046C06A
:1031D0002196FE01EE0FFF1FE45FFC4F0190F0818E
:1031E000E02D82E0ED3BF807B8F1E451F540A0F5A1
:1031F000E22FEF5F31E0E21708F030E03A0F41E0F4
:103200003A1708F040E04B0F51E04B1708F050E040
:10321000500F61E0501708F060E0610F71E0611736
:1032200008F070E07F0D81E07F1508F080E08E0DE2
:1032300091E08E1508F090E02E2F990D01E00E948C
:103240005F01A32FB42F052F162FF72EE82E992EEE
:103250000894A11CB11C0FC0E6010DC0E60182E379
:10326000C816D10444F420E0A0E0B0E000E010E093
:10327000FF24EE2499242196CC15DD0508F487CF90
:1032800083E3C816D104B8F184E2A816B10499F515
:103290003A2F4B2F502F612F7F2D8E2D992D01E02E
:1032A0000E94E000FC01852F8370962F9C70892B73
:1032B00011F12093FE023093FF02409300035093DC
:1032C00001036093020370930303E0930403F093FC
:1032D0000503B0920703A092060388EE93E0909353
:1032E00009038093080385E090E090930B0380939B
:1032F0000A0381E001C080E0DF91CF911F910F911F
:10330000FF90EF90DF90CF90BF90AF909F90089587
:10331000AF92BF92DF92EF92FF920F931F93CF93E2
:10332000DF935C01C1E0D0E020E0A0E0B0E000E08D
:1033300010E0FF24EE24DD245AC0FE01EE0FFF1F33
:10334000E45FFC4F0190F081E02D85E0E531F80766
:1033500060F086E0E43AF80760F43A2F4B2F502FE4
:10336000612F7F2D8E2D9D2D2DC081E0ED32F80730
:10337000A0F1EC5BF24088F5E22FEF5F31E0E2175D
:1033800008F030E03A0F41E03A1708F040E04B0F08
:1033900051E04B1708F050E0500F61E0501708F073
:1033A00060E0610F71E0611708F070E07F0D81E06F
:1033B0007F1508F080E08E0D91E08E1508F090E00A
:1033C0002E2F9D0D01E00E945F01A32FB42F052F2A
:1033D000162FF72EE82ED92E09C0E50120E0A0E037
:1033E000B0E000E010E0FF24EE24DD242296CA15B0
:1033F000DB0508F4A2CF3A2F4B2F502F612F7F2DE2
:103400008E2D9D2D01E00E94E000E82F822F832B5E
:10341000F1E5AF16B104E8F1842B852B862B872BC1
:103420008E2B892B11F420E03DC02093FE023093B7
:10343000FF024093000350930103609302037093D3
:103440000303E093040390930503C50196958795C4
:10345000909307038093060384EF91E09093090310
:103460008093080384E6A816B10418F483E090E082
:1034700006C0F8E6AF16B10439F484E090E090930A
:103480000B0380930A030DC010920B0310920A03E2
:1034900008C020E0842B852B862B872B8E2B892B35
:1034A00009F021E0822FDF91CF911F910F91FF90C2
:1034B000EF90DF90BF90AF900895EF92FF920F933F
:1034C0001F93CF93DF930E94642A7B018C0180912C
:1034D000DE039091DF03E701C81BD90BD093E5030E
:1034E000C093E40323E1C938D20708F43DC08091BA
:1034F0000C0390910D038958934170F18091DC0386
:103500009091DD0301969093DD038093DC03019796
:10351000F1F48091E2039091E3038531910598F0F5
:103520008135910518F00E9488190DC083339105EB
:1035300018F00E94AE1807C001979093E3038093A0
:10354000E2030E9469171092DD031092DC031092CF
:10355000E3031092E20308C01092E3031092E20327
:103560001092DD031092DC038091E2039091E3035B
:103570008836910540F01092E3031092E203109216
:10358000DD031092DC038091E2039091E303FC01E0
:10359000EE0FFF1FE45FFC4FD183C0830196909331
:1035A000E3038093E203E092DE03F092DF030093F3
:1035B000E0031093E103DF91CF911F910F91FF90F2
:1035C000EF9008950F931F938C01FC0180810E945E
:1035D000A1298FEF9FEFF801918380831F910F91B5
:1035E0000895FC01808191812FEF8F3F9207D1F0E8
:1035F0001092FE021092FF0210920003109201033B
:103600001092020310920303109204031092050318
:1036100010920703109206036DE57AE141E050E055
:103620000E947E290895FC01808191818617970769
:1036300029F071836083CF010E94F11A0895AF923F
:10364000BF92DF92EF92FF920F931F93CF93DF937E
:10365000EC017B015A01088119818A819B818F5F6E
:103660009F4F89F13FEF0F3F130711F4DD2405C091
:10367000CE010E94E21ADD24D3948A8161E00E9487
:10368000C72B8C819D819C01E29EC001E39E900D21
:10369000F29E900D11240E94E32A8A8160E00E942C
:1036A000C72B8C819D819C01A29EC001A39E900D81
:1036B000B29E900D11240E94E32ADD2021F0CE015C
:1036C000B8010E94131BDF91CF911F910F91FF90C2
:1036D000EF90DF90BF90AF900895FC01808581301E
:1036E00041F4CF0161E070E04FE150E00E941F1B08
:1036F0000895823039F4CF0161E070E04AE050E093
:103700000E941F1B0895FC018085813041F4CF0188
:1037100063E070E041E050E00E941F1B089582309A
:1037200039F4CF0162E070E041E050E00E941F1BDD
:103730000895FC018085813041F4CF0161E070E0A3
:1037400043E050E00E941F1B0895823039F4CF01FE
:1037500061E070E042E050E00E941F1B0895CF92AC
:10376000DF92EF92FF920F931F93CF93DF938C0121
:103770006B01EE24FF2416C0803319F0813341F42D
:1037800004C0C8010E94991B03C0C8010E94831B8A
:1037900021968881882381F7C8010E946D1B0894B7
:1037A000E11CF11CF80186819781E816F90614F4F2
:1037B000E601EFCFDF91CF911F910F91FF90EF9036
:1037C000DF90CF9008950F931F938C01FC018281AD
:1037D00060E00E94882B8FEF9FEFF8019383828334
:1037E0001F910F910895FC01862F6283738361E01E
:1037F0000E94882B08950F931F938C01FC018681F2
:1038000060E00E94C72B81E090E00E94E32AF8016B
:10381000868161E00E94C72B81E090E00E94E32A4C
:10382000F801868160E00E94C72B84E690E00E9448
:10383000E32A1F910F910895CF92DF92EF92FF92AA
:103840000F931F93CF93DF93D82EC92E282F392F94
:10385000C9018C01C0E0D0E0E62EFF24F801878189
:1038600061E00E94882BB7010C2E02C07595679508
:103870000A94E2F76170F80187810E94C72B2196B4
:103880000F5F1F4FC830D10549F78D2D9C2D0E9429
:10389000FB1BDF91CF911F910F91FF90EF90DF9075
:1038A000CF900895CF92DF92EF92FF920F931F93E4
:1038B000CF93DF93D82EC92E282F392FC9018C0121
:1038C000C0E0D0E0E62EFF24F801878161E00E948D
:1038D000882BB7010C2E02C0759567950A94E2F704
:1038E0006170F80187810E94C72B21960F5F1F4FDF
:1038F000C430D10549F78D2D9C2D0E94FB1BDF9113
:10390000CF911F910F91FF90EF90DF90CF9008958E
:103910001F93CF93DF93EC01162F8C81642F0E94AD
:10392000C72B8D818F3F19F060E00E94C72B8F85D8
:1039300084FF05C0CE01612F0E941C1C0EC0612FA8
:1039400070E084E0759567958A95E1F7CE010E9455
:10395000521CCE01612F0E94521CDF91CF911F910A
:10396000089541E00E94881C81E090E0089540E0C5
:103970000E94881C0895FC016089862F8460808BDA
:103980006C60CF010E94B71C089561E00E94B71CD3
:1039900080ED97E00E94E32A0895CF93DF93EC0136
:1039A000423018F08F8588608F874B8B1C8A2223CA
:1039B00029F0413019F48F8584608F8780E593EC7E
:1039C0000E94E32A8C8160E00E94C72B8E8160E018
:1039D0000E94C72B8D818F3F19F060E00E94C72B9A
:1039E0006F8564FD1DC0CE0163E00E94521C84E916
:1039F00091E10E94E32ACE0163E00E94521C84E917
:103A000091E10E94E32ACE0163E00E94521C86E904
:103A100090E00E94E32ACE0162E00E94521C16C090
:103A20006062CE010E94B71C84E991E10E94E32A02
:103A30006F856062CE010E94B71C86E990E00E940B
:103A4000E32A6F856062CE010E94B71C6F856062B9
:103A5000CE010E94B71C84E0888BCE010E94BB1C63
:103A6000CE010E94C51C82E0898BCE0166E00E94D7
:103A7000B71CDF91CF9108956F927F928F92AF9292
:103A8000CF92EF920F931F93DF93CF93CDB7DEB713
:103A90003C01162F842FF301448325830683E7829C
:103AA000C086A18682869D8593879E8594879F8503
:103AB00095879889968761E00E94882BF30185811C
:103AC0008F3F19F061E00E94882BF301868161E04D
:103AD0000E94882B112319F0F301178603C080E19F
:103AE000F3018787C30160E141E020E00E94CD1C23
:103AF000CF91DF911F910F91EF90CF90AF908F906A
:103B00007F906F9008958F92AF92CF92EF920F9324
:103B10001F93CF93DF93DC01362F542F722F102F7A
:103B2000AE2C8C2C13961C921E92129786EB91E071
:103B300011969C938E9300D000D0EDB7FEB73196CE
:103B4000CDB7DEB71982118212821382CD0161E0F6
:103B5000432F2FEF052FE72EC12E0E943C1D0F9003
:103B60000F900F900F90DF91CF911F910F91EF90D9
:103B7000CF90AF908F900895FC0175836483089572
:103B80007F928F929F92AF92BF92CF92DF92EF92ED
:103B9000FF920F931F93CF93DF935C01712E122F2F
:103BA000B32FA42FF52FE62F972F47016501E501CD
:103BB000EE24FF241BC000FD02C080E301C081E3AE
:103BC00088A30894E11CF11C202F372D412F5B2F77
:103BD0006A2F7F2F8E2F01E00E94E000022F732EAC
:103BE000142FB52FA62FF72FE82F2196802F872986
:103BF000812B8B2B8A2B8F2B8E2B892BE1F6A4010B
:103C00004E195F09D501A80DB91DFD0120E030E076
:103C100090E30FC02417350720F0878DE6018883D5
:103C200002C0E60198832F5F3F4F31970894C11C73
:103C3000D11C2815390570F31C92DF91CF911F918B
:103C40000F91FF90EF90DF90CF90BF90AF909F903B
:103C50008F907F9008950F931F938C010E94562A96
:103C6000605A75418F4F9F4FF80160837183828343
:103C700093831F910F91089586EE93E00E942B1E6F
:103C800087ED94E00E94F1160895AF92BF92DF9203
:103C9000EF92FF920F931F93CF93DF93DC01149663
:103CA000ED90FC901597DD248CE6A82E84E0B82ECC
:103CB0006AC02091900430919104F801828193812F
:103CC0002817390709F050C02091920430919304CD
:103CD000848195812817390709F046C0E5010990CC
:103CE0000020E9F72197CC56D44060817181DB0137
:103CF000FD0101900020E9F73197EA1BFB0BCE177D
:103D0000DF0791F58CE694E0AE010E9477030097FF
:103D100059F5D8011E968C911E97882369F0189644
:103D20004D915C91199716968D919C91179764E926
:103D300074E00E9485030FC06091D4047091D50493
:103D4000882777FD8095982F0E94BB2FF801628706
:103D5000738784879587D8011F96ED91FC915097C2
:103D6000C801099581E001C080E090E02D2D30E090
:103D7000822B932BDD24892B11F0DD24D394E2E0F8
:103D8000F0E0EE0EFF1ED7010D911C9101151105FB
:103D900009F08FCF8D2DDF91CF911F910F91FF9063
:103DA000EF90DF90BF90AF9008952F923F924F9287
:103DB0005F926F927F928F92AF92BF92CF92DF927B
:103DC000EF92FF920F931F93DF93CF9300D000D019
:103DD00000D0CDB7DEB71B015A8349833C832B83C8
:103DE0001E830D8326013701DA2C182D133008F0BD
:103DF00092C08DE392E00E940B105C01009709F4E1
:103E00008AC08DE392E00E9414107C01882031F476
:103E10008DE392E0B50142E351E00DC0113031F481
:103E20008DE392E0B50149E351E005C08DE392E0F6
:103E3000B50140E451E097010E942B0B8DE392E025
:103E40000E940B108C018DE392E0B701A8010E9443
:103E5000F20A8DE392E0B80147E451E091010E943B
:103E600034108DE392E0B80149E451E029813A81B0
:103E70000E9492108DE392E0B8014BE451E02B8157
:103E80003C810E949210DD2051F08DE392E0B80158
:103E90004DE451E02D813E810E94341027C0C301C2
:103EA000B2010E94882F6B017C01B601882777FD43
:103EB0008095982F0E94BB2F9B01AC01C301B201DA
:103EC0000E941C2F882351F08DE392E0B8014DE44D
:103ED00051E0930182010E94641008C08DE392E0DA
:103EE000B8014DE451E096010E9492108DE392E0FA
:103EF000B5010E94050E8C01009729F088E795E036
:103F0000B8010E94A42E8DE392E0B5010E94600BDF
:103F1000C8010E94E62826960FB6F894DEBF0FBEB1
:103F2000CDBFCF91DF911F910F91FF90EF90DF9068
:103F3000CF90BF90AF908F907F906F905F904F9099
:103F40003F902F9008956F927F928F92AF92CF9271
:103F5000DF92EF92FF920F931F93CF93DF933C0179
:103F6000FC01C481D58112C060817181428153817D
:103F70002481358106811781C284D384E484F58449
:103F8000C301A68488240E94D51E2296E881F98167
:103F9000309751F7DF91CF911F910F91FF90EF90E4
:103FA000DF90CF90AF908F907F906F9008952F9279
:103FB0003F924F925F926F927F928F92AF92CF9289
:103FC000DF92EF92FF920F931F93DF93CF93CDB7C2
:103FD000DEB72F970FB6F894DEBF0FBECDBF1C0122
:103FE000822EA32EB42FA52FCB01CC24DD245BE0A1
:103FF000E52EF12C44E0642E712C6C0E7D1E202FDA
:104000002F70F301EE0DFF1D20833BE0E316F1045A
:1040100011F0C20ED11C0894E108F1082FEFE2164E
:104020002FEFF20671F09801482D5A2D6B2F7A2F41
:1040300004E00E94E0008901842EA52EB62FA72F50
:10404000DECF8C81893009F045C18F8590E03FE05B
:10405000C322DD248C159D0509F03CC100D000D0A1
:1040600000D0EDB7FEB7319621E030E02C0F3D1FB8
:10407000ADB7BEB712963C932E93119780E591E0B1
:10408000938382838E818295807F9F81890F848331
:1040900015820E94CF048DB79EB706960FB6F8948E
:1040A0009EBF0FBE8DBF8D818370813009F44EC0DD
:1040B000813038F0823009F462C0833009F00AC1DF
:1040C000A6C06A8524E6629FB0011124882777FD87
:1040D0008095982F0E94BB2F7B018C016B852AE075
:1040E000629FB0011124882777FD8095982F0E9448
:1040F000BB2F9B01AC01C801B7010E94B82E7B0108
:104100008C016C8570E0882777FD8095982F0E9440
:10411000BB2F9B01AC01C801B7010E94B82E20E063
:1041200030E046E953E40E94B72E20E030E040E260
:1041300051E40E94202F6B017C01C101BE016F5F21
:104140007F4F40E050E024E130E05CC06A852AE027
:10415000629FB00111242B85620F711D882777FDA6
:104160008095982F0E94BB2F6B017C01C101BE017D
:104170006F5F7F4F40E050E025E130E043C07A853B
:1041800060E0882777FD8095982F0E94BB2F7B01E8
:104190008C016B8570E034E0660F771F3A95E1F78C
:1041A000882777FD8095982F0E94BB2F9B01AC013B
:1041B000C801B7010E94B82E7B018C016C8570E0AC
:1041C000882777FD8095982F0E94BB2F9B01AC011B
:1041D000C801B7010E94B82E20E030E841E054E465
:1041E0000E946B3020E030E04AE754E40E94202F28
:1041F0006B017C01C101BE016F5F7F4F40E050E069
:1042000026E130E000E010E0AA24882461C069853E
:1042100070E061707070762F6627882777FD809533
:10422000982F0E94BB2F7B018C016A8570E094E07F
:10423000660F771F9A95E1F7882777FD8095982F6D
:104240000E94BB2F9B01AC01C801B7010E94B82E90
:104250007B018C016B8570E0882777FD8095982F16
:104260000E94BB2F9B01AC01C801B7010E94B82E70
:1042700020E030E040E251E40E94202F2B013C017D
:104280006C8570E080E090E00E94B92F6B017C01AA
:10429000C101BE016F5F7F4F40E050E027E130E099
:1042A00000E010E0AA2488240E94D51EC301B201B8
:1042B00026E636E646E650E40E946B306B017C0150
:1042C000C101BE016F5F7F4F40E050E028E130E068
:1042D0000E94D51E2F960FB6F894DEBF0FBECDBF3D
:1042E000CF91DF911F910F91FF90EF90DF90CF90D2
:1042F000AF908F907F906F905F904F903F902F90F6
:1043000008954F925F926F927F928F92AF92BF9279
:10431000CF92DF92EF92FF920F931F93DF93CF9391
:10432000CDB7DEB72D970FB6F894DEBF0FBECDBF69
:104330002C01822EA32EB42FA52FCB01CC24DD245B
:10434000E9E0EE2EF12C74E0672E712C6C0E7D1ED0
:10435000202F2F70F301EE0DFF1D208339E0E316AF
:10436000F10411F0C20ED11C0894E108F1086FEFBE
:10437000E6166FEFF60671F09801482D5A2D6B2F57
:104380007A2F04E00E94E0008901842EA52EB62F2A
:10439000A72FDECF1C811A3009F063C08D8590E015
:1043A0007FE0C722DD248C159D0509F05AC000D09E
:1043B00000D000D0EDB7FEB731965E010894A11C85
:1043C000B11CADB7BEB71296BC92AE92119780E504
:1043D00091E0938382838F8190E08E7090709595A9
:1043E00087952E812295207F280F248315820E9495
:1043F000CF042B859C854A856DB77EB76A5F7F4F5A
:104400000FB6F8947EBF0FBE6DBF8D81882349F52E
:1044100064E6269FB0011124919F90011124620F40
:10442000731F640F711D80E090E00E94B92F20E09F
:1044300030E040E251E40E94202F20E030E048E4E8
:1044400052E40E94B72E6B017C01C201B50140E02D
:1044500050E02DE030E000E010E0AA2488240E9423
:10446000D51E2D960FB6F894DEBF0FBECDBFCF91EF
:10447000DF911F910F91FF90EF90DF90CF90BF9051
:10448000AF908F907F906F905F904F9008952F9294
:104490003F924F925F926F927F928F929F92AF92D4
:1044A000BF92CF92DF92EF92FF920F931F93DF9311
:1044B000CF93CDB7DEB72B970FB6F894DEBF0FBE04
:1044C000CDBF9F838E83680179016D2D70E080E000
:1044D00090E00E94B92F20E030E048E452E40E94CE
:1044E000B72E688779878A879B87D701C60134E012
:1044F000B695A795979587953A95D1F78F70882EA1
:104500009924B40123E0769567952A95E1F78827E9
:1045100077FD8095982F0E94BB2F20E030E040E08F
:104520005FE30E946B302B013C01B40175956795E8
:104530007595679561707070882777FD8095982FC5
:104540000E94BB2F20E030E040E85EE30E946B3029
:104550009B01AC01C301B2010E94B82E2B013C01AA
:10456000B4017595679561707070882777FD8095A7
:10457000982F0E94BB2F20E030E040E05EE30E94D5
:104580006B309B01AC01C301B2010E94B82E2B011C
:104590003C0181E088229924AA2497FCA094BA2C9B
:1045A000C501B4010E94BB2F20E030E040E85DE38C
:1045B0000E946B309B01AC01C301B2010E94B82E76
:1045C0009B01AC01688579858A859B850E94B82E00
:1045D00020E030E040E251E40E946B300E94882FDE
:1045E000882777FD8095982F0E94BB2F1B012C01F7
:1045F000ADB7BEB718970FB6F894BEBF0FBEADBF2C
:10460000EDB7FEB731963E010894611C711C1296FD
:104610007C926E92119783E591E093838283D70118
:10462000C6010CE1B695A795979587950A95D1F7A0
:1046300095838483D701C6011AE1B695A79597950E
:1046400087951A95D1F783708F5F868317820E94B2
:10465000CF048DB79EB708960FB6F8949EBF0FBED5
:104660008DBF6701EE24FF249FEFC922DD24B60130
:10467000882777FD8095982F0E94BB2F6B017C01C6
:104680008E819F81B30140E050E02EE130E000E0F8
:1046900010E0AA2488240E94D51EC201B10120E0A6
:1046A00030E040E251E40E94202F6B017C018E81BA
:1046B0009F81B30140E050E02FE130E00E94D51E21
:1046C0002B960FB6F894DEBF0FBECDBFCF91DF9112
:1046D0001F910F91FF90EF90DF90CF90BF90AF9020
:1046E0009F908F907F906F905F904F903F902F9012
:1046F0000895EF92FF920F931F93CF93DF938DE373
:1047000092E00E940B107C01009709F465C08DE3D4
:1047100092E00E9414108C018DE392E0B7014CE509
:1047200051E098010E942B0B8DE392E00E940B1048
:10473000EC018DE392E0B801AE010E94F20A8DE334
:1047400092E0BE0147E451E02CE634E00E943410D0
:1047500020919004309191048DE392E0BE0149E4F0
:1047600051E00E94921020919204309193048DE3C5
:1047700092E0BE014BE451E00E9492108091D60479
:10478000882351F08DE392E0BE014DE451E024E92D
:1047900034E00E9434100BC02091D4043091D50431
:1047A0008DE392E0BE014DE451E00E9492108DE352
:1047B00092E0B7010E94050EEC01009729F088E70E
:1047C00095E0BE010E94A42E8DE392E0B7010E9405
:1047D000600BCE010E94E628DF91CF911F910F91CF
:1047E000FF90EF900895CF92DF92EF92FF920F9398
:1047F0001F93CF93DF93EB018DE392E00E940B10A8
:104800006C010097A9F18DE392E00E9414107C01E5
:104810008DE392E0B60140E651E097010E942B0B38
:104820008DE392E00E940B108C018DE392E0B701C2
:10483000A8010E94F20A8DE392E0B80146E651E039
:104840009E010E9492108DE392E0B6010E94050E37
:10485000EC01009729F088E795E0BE010E94A42EA4
:104860008DE392E0B6010E94600BCE010E94E62823
:10487000DF91CF911F910F91FF90EF90DF90CF903C
:104880000895AF92BF92CF92DF92EF92FF920F9373
:104890001F93CF93DF930CEE13E08DE392E0B8010A
:1048A0000E94AE125C0180E8F80111928A95E9F746
:1048B000A114B10411F480E08DC08DE392E0B50144
:1048C0000E94D60A882309F47CC08DE392E0B501EA
:1048D00042E351E00E94100BBC01009709F471C043
:1048E0008DE392E040E00E94E30AEC01009709F4B6
:1048F00068C08DE392E0BE0147E451E00E94100BD6
:104900008C018DE392E0BE0149E451E00E94100B5E
:104910007C018DE392E0BE014BE451E00E94100B5C
:104920006C018DE392E0BE014DE451E00E94100B5A
:10493000EC010115110509F444C0F80180858530AA
:1049400009F03FC0618572858CE694E044E250E056
:104950000E948503E114F104A1F1F7018085833001
:1049600081F5818592859093910480939004C11480
:10497000D10439F1F6018085833019F5818592855E
:1049800090939304809392042097D9F08885853082
:1049900061F469857A8584E994E040E450E00E94FE
:1049A000850381E08093D6040AC0833051F4898561
:1049B0009A859093D5048093D4041092D60401E094
:1049C00001C000E08DE392E0B5010E94600B802FF2
:1049D000011181E0DF91CF911F910F91FF90EF9036
:1049E000DF90CF90BF90AF900895CF93DF9388E78B
:1049F00095E00E942C2D892B19F4CFEFDFEF1CC01E
:104A0000C0E0D0E012C0C038D105B1F088E795E031
:104A10000E945D2DFE01E451FC4F8083219662E0EF
:104A200070E080E090E00E948A2A88E795E00E948A
:104A30002C2D181619063CF3CE01DF91CF91089565
:104A4000BF92CF92DF92EF92FF920F931F93CF937B
:104A5000DF93EC010E94F524181619060CF0D3C060
:104A6000CE010E944124882309F4C8C0CE010E94CF
:104A7000451E882309F0C7C080919004909191044D
:104A8000892B09F0B7C0809192049091930423E0A0
:104A9000873E920791F023E0883E920724F40B971B
:104AA00009F0A4C051C023E08B3E920709F482C0F4
:104AB0008F5E934009F09AC021C084E994E060E0E1
:104AC00070E040E150E00E94DE017B018C015FEF6D
:104AD000C52ED12CB601601B71098CE00E94282BD9
:104AE000CF18D10888E0B6010E94282BE094F094FA
:104AF0008FEFE822FF2487E0B70123C084E994E028
:104B000060E070E040E150E00E94DE01B62EE72E4A
:104B10008093E0044FEFC42ED12CB601681B7109BD
:104B20008AE00E94282BE092E104B6016E19710917
:104B30008BE00E94282BB092E204CB18D10889E0C8
:104B4000B6010E94282B4AC08CE694E00E940D0317
:104B5000823049F0833061F0813079F487ED94E060
:104B60006EE070E00EC087ED94E06FE070E009C089
:104B700087ED94E060E170E004C087ED94E064E0CC
:104B800070E00E94F31B87ED94E06EE571E00E94F7
:104B9000191787ED94E068E070E00E941D1787ED1B
:104BA00094E064E974E00E94AF1B87ED94E00E94FA
:104BB000E31B14C084E994E06BE671E00E94670394
:104BC000009781F484E994E06FE671E00E9470033D
:104BD00084E994E067E771E00E945C03CE010E94E3
:104BE000792311C0CE0164E070E00BC0CE0163E018
:104BF00070E007C0CE0162E070E003C0CE0161E06A
:104C000070E00E94F323DF91CF911F910F91FF90ED
:104C1000EF90DF90CF90BF9008954F925F926F9288
:104C20007F928F92AF92CF92DF92EF92FF920F938B
:104C30001F93DF93CF93CDB7DEB72A970FB6F894C3
:104C4000DEBF0FBECDBF2C0188E795E00E942C2D62
:104C5000181619061CF4C2010E94202500D000D0AD
:104C600000D0EDB7FEB731968E010F5F1F4FADB785
:104C7000BEB712961C930E9311977CE7E72E71E056
:104C8000F72EF382E2828091E004848315820E94F1
:104C9000CF048DB79EB706960FB6F8949EBF0FBE91
:104CA0008DBF64E0662E712C6C0E7D1EC301B801B1
:104CB0000E94700300D000D000D0EDB7FEB731964F
:104CC000ADB7BEB712961C930E931197F382E28292
:104CD0008091E104848315820E94CF048DB79EB732
:104CE00006960FB6F8949EBF0FBE8DBFC301B801E4
:104CF0000E945C0300D000D000D0EDB7FEB7319623
:104D0000ADB7BEB712961C930E931197F382E28251
:104D10008091E204848315820E94CF048DB79EB7F0
:104D200006960FB6F8949EBF0FBE8DBFC301B801A3
:104D30000E945C03C20161E871E040E050E02FEEA8
:104D400033E083010F2EF0E0CF2EF0E0DF2EF0E015
:104D5000EF2EF0E0FF2EF02DAA24A39488240E94C9
:104D6000D51E85B190E08C0101711070FBB084FFFD
:104D700004C0C30163E871E003C0C30166E871E0E9
:104D80000E947003CE01049600FF03C063E871E047
:104D900002C066E871E00E945C03CE010496F7FE53
:104DA00003C063E871E002C066E871E00E945C0342
:104DB000C20161E871E040E050E027EE33E08E018F
:104DC0000C5F1F4F0F2EF0E0CF2EF0E0DF2EF0E053
:104DD000EF2EF0E0FF2EF02DAA24A39488240E9449
:104DE000D51E88E795E00E942C2D181619061CF494
:104DF000C2010E9420252A960FB6F894DEBF0FBE8E
:104E0000CDBFCF91DF911F910F91FF90EF90DF9079
:104E1000CF90AF908F907F906F905F904F9008955C
:104E2000FF920F931F93162F05B1FBB08CE061E04A
:104E30000E94C72B88E061E00E94C72B87E061E0F9
:104E40000E94C72B812F60E00E94C72B6CE370E0AB
:104E500080E090E00E948A2A8CE061E00E94C72BEB
:104E600088E061E00E94C72B87E061E00E94C72BC9
:104E700064E170E080E090E00E948A2A05B9FBB806
:104E80001F910F91FF9008958F929F92AF92BF92C2
:104E9000CF92DF92EF92FF920F931F93CF93DF9306
:104EA000EC0188E795E00E942C2D181619061CF4D9
:104EB000CE010E94202587ED94E060E070E00E9422
:104EC000131B87ED94E00E942117882309F49BC0EF
:104ED00087ED94E00E946417892B09F494C087ED54
:104EE00094E00E946417069708F08DC087ED94E067
:104EF0000E944E178901F42EE52ED62EC72EB82E0D
:104F0000A92E822F812B8F298E298D298C298B29DF
:104F10008A29D1F1CE0168E00E94102787ED94E044
:104F20000E946417039751F4CE012F2D3E2D4D2D75
:104F30005C2D6B2D7A2D0E94812161C087ED94E05C
:104F40000E946417049751F4CE012F2D3E2D4D2D54
:104F50005C2D6B2D7A2D0E94D71F51C087ED94E0F8
:104F60000E946417059751F4CE012F2D3E2D4D2D33
:104F70005C2D6B2D7A2D0E94472241C087ED94E075
:104F80000E945F17819748F0CE0161E871E040E030
:104F900050E02BE030E08B0123C087ED94E00E94CD
:104FA0004E178901D42EC52EB62EA72E982E892EE7
:104FB00087ED94E00E945F177C0184E994E02D2D39
:104FC0003C2D4B2D5A2D692D782D0E94C01DCE01F0
:104FD00061E871E040E050E02BE030E004E914E0EB
:104FE0000F2EF0E0CF2EF0E0DF2EF0E0EF2EF0E01D
:104FF000FF2EF02DAA24A39488240E94D51E87EDAD
:1050000094E00E943D1788E795E00E942C2D181629
:1050100019061CF4CE010E942025DF91CF911F912B
:105020000F91FF90EF90DF90CF90BF90AF909F9047
:105030008F900895EF92FF920F931F93CF93DF937A
:10504000EC010E9444270E94562A7B018C01888132
:105050009981AA81BB81A8019701281B390B4A0BB2
:105060005B0BDA01C90181539547A040B04050F075
:10507000CE010E940D26CE010E94A31FE882F98274
:105080000A831B83DF91CF911F910F91FF90EF90C7
:1050900008950F931F93CF93DF93BC018230910546
:1050A00010F462E070E0E0919C06F0919D06A0E0B3
:1050B000B0E040E050E024C08081918186179707DE
:1050C000D0F08617970771F482819381109729F0A9
:1050D00013969C938E9312972CC090939D06809369
:1050E0009C0627C04115510519F08417950718F43F
:1050F000EF018D01AC01DF01828193819C01F901F7
:105100003097D1F641155105F9F0CA01861B970B6E
:105110008430910580F48A819B810115110521F06D
:10512000F8019383828304C090939D0680939C062C
:10513000FE01329645C0FE01E80FF91F619371939D
:105140000297998388833CC080919A0690919B0630
:10515000892B41F480919E0190919F0190939B0631
:1051600080939A064091A0015091A10141155105EB
:1051700041F44DB75EB780919C0190919D01481B11
:10518000590B20919A0630919B0624173507B0F4ED
:10519000CA01821B930B8617970780F0AB014E5F05
:1051A0005F4F8417950750F0420F531F50939B0693
:1051B00040939A06F9016193719302C0E0E0F0E038
:1051C000CF01DF91CF911F910F910895CF93DF937E
:1051D0009C01009709F48FC0EC0122971B821A8270
:1051E00060919C0670919D066115710581F488811E
:1051F0009981820F931F20919A0630919B06281760
:10520000390739F5D0939B06C0939A0674C0DB0129
:1052100040E050E0AC17BD0708F1BB83AA83FE0154
:1052200021913191E20FF31FAE17BF0779F48D91F1
:105230009C911197280F391F2E5F3F4F3983288388
:1052400012968D919C9113979B838A8341155105EA
:1052500071F4D0939D06C0939C064DC012968D911B
:105260009C911397AD01009711F0DC01D3CFDA01C7
:105270001396DC93CE931297FA0121913191E20FAC
:10528000F31FCE17DF0769F488819981280F391F32
:105290002E5F3F4FFA01318320838A819B81938364
:1052A0008283E0E0F0E0DB0112968D919C911397F0
:1052B000009719F0BC01FD01F6CFAB014E5F5F4FC7
:1052C000DB018D919C91840F951F20919A0630915E
:1052D0009B062817390779F4309729F410929D0618
:1052E00010929C0602C0138212824250504050938A
:1052F0009B0640939A06DF91CF910895823000F586
:10530000E82FF0E0EE0FFF1FED51FB4F718360833C
:10531000882319F08130A1F408C0809169008C7F46
:10532000842B80936900E89A089580916900440F66
:10533000551F440F551F837F842B80936900E99A82
:105340000895823080F4882319F0813021F402C05E
:10535000E89801C0E998E82FF0E0EE0FFF1FED514B
:10536000FB4F1182108208951F920F920FB60F9279
:1053700011242F933F934F935F936F937F938F935A
:105380009F93AF93BF93EF93FF938091E30490912A
:10539000E404892B29F0E091E304F091E4040995F9
:1053A000FF91EF91BF91AF919F918F917F916F91FD
:1053B0005F914F913F912F910F900FBE0F901F90D3
:1053C00018951F920F920FB60F9211242F933F93AF
:1053D0004F935F936F937F938F939F93AF93BF93FD
:1053E000EF93FF938091E5049091E604892B29F0D7
:1053F000E091E504F091E6040995FF91EF91BF91EA
:10540000AF919F918F917F916F915F914F913F915C
:105410002F910F900FBE0F901F9018951F920F9213
:105420000FB60F9211242F933F938F939F93AF93B7
:10543000BF938091EB049091EC04A091ED04B091A6
:10544000EE043091EF040196A11DB11D232F2D5FB5
:105450002D3720F02D570196A11DB11D2093EF048B
:105460008093EB049093EC04A093ED04B093EE04CE
:105470008091E7049091E804A091E904B091EA04D6
:105480000196A11DB11D8093E7049093E804A093B9
:10549000E904B093EA04BF91AF919F918F913F913E
:1054A0002F910F900FBE0F901F9018958FB7F89403
:1054B0002091EB043091EC044091ED045091EE0406
:1054C0008FBFB901CA0108959FB7F8942091E704EE
:1054D0003091E8044091E9045091EA0486B5A89B14
:1054E00006C08F3F21F02F5F3F4F4F4F5F4F9FBF51
:1054F000542F432F322F2227280F311D411D511DBC
:1055000082E0220F331F441F551F8A95D1F7B9013E
:10551000CA0108959B01AC017FB7F8948091E7041C
:105520009091E804A091E904B091EA0466B5A89BC3
:1055300005C06F3F19F00196A11DB11D7FBFBA2FA5
:10554000A92F982F8827860F911DA11DB11D62E0FC
:10555000880F991FAA1FBB1F6A95D1F7BC012DC0E8
:10556000FFB7F8948091E7049091E804A091E904D2
:10557000B091EA04E6B5A89B05C0EF3F19F001968B
:10558000A11DB11DFFBFBA2FA92F982F88278E0FFD
:10559000911DA11DB11DE2E0880F991FAA1FBB1F1D
:1055A000EA95D1F7861B970B885E9340C8F221508D
:1055B00030404040504068517C4F21153105410535
:1055C000510571F60895019739F0880F991F880FDA
:1055D000991F02970197F1F70895789484B5826036
:1055E00084BD84B5816084BD85B5826085BD85B587
:1055F000816085BDEEE6F0E0808181608083E1E836
:10560000F0E010828081826080838081816080836D
:10561000E0E8F0E0808181608083E1EBF0E0808170
:1056200084608083E0EBF0E0808181608083EAE742
:10563000F0E08081846080838081826080838081CB
:10564000816080838081806880831092C10008958A
:105650001F93CF93DF93182FEB0161E00E94882BFB
:10566000209709F44AC0CF3FD10509F449C0E12F82
:10567000F0E0E45BFE4F84918330C1F0843028F485
:10568000813051F08230B1F50CC0863019F187308D
:1056900049F1843079F514C084B5806884BDC7BDF4
:1056A00033C084B5806284BDC8BD2EC080918000A7
:1056B000806880938000D0938900C093880024C0C4
:1056C00080918000806280938000D0938B00C09393
:1056D0008A001AC08091B00080688093B000C093A7
:1056E000B30012C08091B00080628093B000C0937C
:1056F000B4000AC0C038D1051CF4812F60E002C09C
:10570000812F61E00E94C72BDF91CF911F910895F7
:10571000CF93DF93482F50E0CA01885C9E4FFC0175
:1057200034914C5D5E4FFA018491882369F190E0D9
:10573000880F991FFC01EA5FFE4FA591B491FC010F
:10574000E05FFE4FC591D491662351F42FB7F894D2
:105750008C91932F909589238C93888189230BC0FA
:10576000623061F42FB7F8948C91932F9095892330
:105770008C938881832B88832FBF06C09FB7F894B2
:105780008C91832B8C939FBFDF91CF910895482FED
:1057900050E0CA01845B9E4FFC012491CA01885CE1
:1057A0009E4FFC0194914C5D5E4FFA01349133237E
:1057B00009F440C0222351F1233071F0243028F441
:1057C0002130A1F0223011F514C02630B1F027307D
:1057D000C1F02430D9F404C0809180008F7703C0D9
:1057E000809180008F7D8093800010C084B58F777A
:1057F00002C084B58F7D84BD09C08091B0008F77D1
:1058000003C08091B0008F7D8093B000E32FF0E063
:10581000EE0FFF1FE05FFE4FA591B4912FB7F894F4
:10582000662321F48C919095892302C08C91892B59
:105830008C932FBF089508951F920F920FB60F9269
:1058400011242F933F934F938F939F93EF93FF9345
:105850008091C00082FD1DC04091C600209130059E
:10586000309131052F5F3F4F2F733070809132059B
:10587000909133052817390771F0E0913005F091C8
:105880003105E051FB4F40833093310520933005C3
:1058900002C08091C600FF91EF919F918F914F912F
:1058A0003F912F910F900FBE0F901F901895E09190
:1058B0008405F0918505E05CFF4F819191912081F5
:1058C0003181821B930B8F739070892B11F00E9492
:1058D0001B2C08951F920F920FB60F9211242F9335
:1058E0003F938F939F93EF93FF9320917405309193
:1058F000750580917605909177052817390731F461
:105900008091C1008F7D8093C10014C0E091760525
:10591000F0917705EC5CFA4F2081809176059091AB
:10592000770501968F739070909377058093760535
:105930002093C600FF91EF919F918F913F912F91FE
:105940000F900FBE0F901F901895AF92BF92DF92ED
:10595000EF92FF920F931F93CF93DF93EC017A01A5
:105960008B01DD24403081EE580780E0680780E03D
:10597000780711F0DD24D39491E0A92EB12CEC89A5
:10598000FD89DD2069F0C50108A002C0880F991FBC
:105990000A94E2F7808360E079E08DE390E005C04F
:1059A000108260E874E88EE190E0A80197010E94FF
:1059B00068322150304040405040569547953795C9
:1059C000279580E12030380720F0DD2011F0DD241C
:1059D000D6CFE889F9893083EA89FB89208319A227
:1059E000EE89FF89408121E030E0C9010C8C02C0C2
:1059F000880F991F0A94E2F7482B4083EE89FF89AC
:105A00004081C9010D8C02C0880F991F0A94E2F7EA
:105A1000482B4083EE89FF894081C9010E8C02C06A
:105A2000880F991F0A94E2F7482B4083EE89FF897B
:105A300080810F8C02C0220F331F0A94E2F7209559
:105A400028232083DF91CF911F910F91FF90EF903A
:105A5000DF90BF90AF900895DC011C96ED91FC9112
:105A60001D97E05CFF4F2191319180819181281B2E
:105A7000390B2F733070C9010895DC011C96ED912C
:105A8000FC911D97E05CFF4F20813181E054F04094
:105A9000DF01AE5BBF4F8D919C911197281739079D
:105AA00019F42FEF3FEF07C08D919C91E80FF91F7C
:105AB0008081282F30E0C9010895DC011C96ED910A
:105AC000FC911D97E05CFF4F20813181E054F04054
:105AD000DF01AE5BBF4F8D919C911197281739075D
